:023B0700881321
:20206200AFF0AE83E58290138AF0EEA3F0EFA3F090138AE0FDA3E0FEA3E0FF901389E0FCF2
:112082007B008D828E838FF0EC122C37A3EB022C37DF
:042093005387FE323F
:03200000022006B5
:03205F0002200359
:0320030002209721
:2020970090138DE4F0A3F01221081220F5D288D2A8D2AF903B0975F08012222A903B56752E
:2020B700F08012222A903B0975F08012222A903BF875F08012222A122218AE82901389EE88
:1E20D700F090FFFF75F000C006122062D0068E82C006122113D0068E8212215180D9F9
:203B09000D0A2D2D2D2D2D2D2D2D2D2D2D2D2D2D2D2D2D2D2D2D2D2D2D2D2D2D2D2D2D2D3F
:203B29002D2D2D2D2D2D2D2D2D2D2D2D2D2D2D2D2D2D2D2D2D2D2D2D2D2D2D2D2D2D2D2DDC
:203B49002D2D2D2D2D2D2D2D0D0A0D0A00312E2052756E2050574D0D0A322E2053746F70C1
:203B69002050574D0D0A332E205365742046434C4B205045524950482061742074686520C6
:203B89006D696E696D756D206672657175656E63790D0A342E205365742046434C4B2050B9
:203BA900455249504820617420746865206D6178696D756D206672657175656E63790D0A07
:203BC900352E20456E7465722049646C65206D6F6465200D0A362E20456E74657220506F60
:1F3BE90077657220446F776E206D6F64652000456E74657220636F6D6D616E643A20007B
:1320F50075D90275E90075F90075EB6675FB6675DB42226C
:20210800759850758920D299C29122E58290138FF0E0FFFEBEFF0122BE08028005BE0D20DE
:2021280080129000081221F99000201221F99000080221F990000D1221F990000A0221F932
:202148007E008F828E830221F9E582901390F0E0FFBF31028019BF32028021BF3302802C93
:20216800BF34028035BF3502803EBF36578047903C0875F08012222AD2DE8063903C2575D6
:20218800F08012222AC2DE1221088053903C4375F08012222A7597008045903C6E75F08079
:2021A80012222A7597FF8037903C9975F08012222A4387018029903CBA75F08012222A43CF
:2021C8008702801B7E00C007C00674E1C0E0743CC0E07480C0E01230C5E58124FBF581905D
:2021E8003D0E75F08012222A903D5B75F08002222AAF83E582901391F0EFA3F01099028084
:20220800FB901391E0FEA3E0FF8E998E828F8322C29110980280FBD291AE997F008E828F7C
:202228008322AFF0AE83E582901393F0EEA3F0EFA3F0901393E0FDA3E0FEA3E0FF7B007C84
:20224800008D828E838FF0123AE7FA60360DBD00010E901393EDF0EEA3F0EFA3F08A017A20
:202268000089828A83C007C006C005C004C0031221F9D003D004D005D006D0070BBB00C189
:202288000C80BE901393EDF0EEA3F0EFA3F00BBB00010C8B828C83229013967460F0901325
:2022A80097E4F0901398F0901399F090139AF090139BF090139CF090139DF090139EF090D9
:2022C800139FF09013A0F09013A1F09013A2F09013A3F09013A4F09013A5F09013A6F0904A
:2022E80013A7F09013A8F09013A9F09013AAF09013ABF09013ACF09013ADF09013AEF090EA
:2023080013AFF09013B0F09013B1F0A3F09013B3F0A3F09013B0E0600302241E122218AE3C
:2023280082901396EEF09013B3E02401F0A3E03400F08E82122113901396E0FFBF3000406D
:2023480005EF24C65033901396E0FFBF0D0280299013D5E4F09013D67419F0E4A3F0901329
:202368009775F000122A81903D6B75F08012222A9013B3E4F0A3F08036901396E0FFBF0DCA
:202388002E9013DEE4F0A3F0A3F090139775F000122BC990139775F000122AA9E5828583F4
:2023A800F09013B1F0E5F0A3F09013B07401F09013F07496F07413A3F0E4A3F09013F30409
:2023C800F0E4A3F090139775F000122E8F9013B3E0FEA3E0FFC3EE9418EF648094805003D3
:2023E80002231B903D8D75F08012222A903D6B75F08012222A9013D5E4F09013D67419F03B
:20240800E4A3F090139775F000122A819013B3E4F0A3F002231B9013B1E0FEA3E08E82F52A
:202428008322AFF0AE83E5829013B5F0EEA3F0EFA3F074D3C0E0743DC0E0122C52158115FA
:202448008174F3C0E0743DC0E0122C5215811581740CC0E0743EC0E0122C52158115819021
:2024680013B5E0FDA3E0FEA3E0FF8D088E098F0A78007900C3E894D2E964809480400302BF
:2024880025769013E5E8F0E9A3F0900009C007C006C005C001C000122D5BAB82AC83D0008B
:2024A800D001D005D006D007EB2DFBEC3EFC8F028B828C838AF0123AE7FBA3123AE7FCA3BE
:2024C800123AE7FAEB4C700FE849600BB80105B90002800302256EC005C006C0079013E50A
:2024E800E8F0E9A3F0900009C005C001C000122D5BAE82AF83D000D001D005EE2508FEEF27
:202508003509FFAD0A74072EFAE43FFB8D048A828B838CF0123AE7FAA3123AE7FB74052E32
:20252800FEE43FFF8E828F838DF0123AE7FEA3123AE7FFC007C006C005C001C000C002C079
:2025480003C006C007742AC0E0743EC0E0122C52E58124FAF581D000D001D005D006D007A6
:20256800D007D006D00508B800010902247C7440C0E0743EC0E0122C521581158122AFF042
:20258800AE83E5829013BCF0EEA3F0EFA3F09013BCE0FDA3E0FEA3E0FF9013BF7446F0906E
:2025A80013C0F09013C1E4F09013C2F09013C3F09013C47430F09013C57478F09013C67451
:2025C80030F09013C7F09013C8F09013C9F09013CAE4F09013B8E0F9A3E0FAA3E0FBA3E0CF
:2025E800FC9013B8E0F5F0A3E042F0A3E042F0A3E045F070167460C0E0743EC0E07480C095
:20260800E01230C515811581158122C007C006C005C004C003C002C001748BC0E0743EC07A
:20262800E0122C5215811581D001D002D003D004D005D006D007E4F50BF50CC005C006C0FA
:2026480007A80BE50CFD3395E0FEFFC3E899ED9AEE9BEF64808CF063F08095F0D007D0067D
:20266800D00540030228A29013E77410F0E4A3F0850B82850C83C007C006C005C004C003FA
:20268800C002C001122D7BE5828583F0D001D002D003D004D005D006D00745F06003022709
:2026A800C1C001C002C003C0048D008E038F04AA0BAC0CEA28F8EC3BFB9013CB7407F0E440
:2026C800A3F0A3F0A3F09013CFE8F0EBA3F09013D17410F09013C475F000C007C006C0056B
:2026E800C004C003C002C0011228B274CAC0E0743EC0E07480C0E01230C51581158115814F
:20270800D001D002D003D004D005D006D007750D02750E00D004D003D002D001C3E50D944B
:2027280006E50E64809480505FC001C002C003C004E50D24C4F582E50E3413F583E0F87C90
:2027480000C007C006C005C004C003C002C001C000C00474D2C0E0743EC0E07480C0E012B3
:2027680030C5E58124FBF581D001D002D003D004D005D006D007050DE4B50D02050ED004F4
:20278800D003D002D0018094C007C006C005C004C003C002C00174D5C0E0743EC0E074801C
:2027A800C0E01230C5158115811581D001D002D003D004D005D006D007C001C002C003C0D6
:2027C800048D828E838FF0123AE7F8A3AD82AE837C009013CB7405F0E4A3F0A3F0A3F090A0
:2027E80013CFE8F0ECA3F09013D17408F09013BF75F000C007C006C005C004C003C002C096
:20280800011228B2D001D002D003D0049013C1E0FC7B00C004C003C002C001C004C00374B9
:20282800D2C0E0743EC0E07480C0E01230C5E58124FBF581D001D002D003D0049013C2E0A7
:20284800FC7B00C004C003C002C001C004C00374D2C0E0743EC0E07480C0E01230C5E5812F
:2028680024FBF58174D8C0E0743EC0E07480C0E01230C5158115811581D001D002D003D0DA
:2028880004D005D006D007050BE4B50B02050CD004D003D002D00102264374DAC0E0743E8E
:2028A800C0E0122C521581158122AFF0AE83E5829013D2F0EEA3F0EFA3F09013D1E0FFBFE1
:2028C80004028028BF08028023BF1002801EBF200280199013D2E0FCA3E0FDA3E0FE8C828D
:2028E8008D838EF0E4122C3790FFFF227E009013FB7404F0E4A3F08F828E83122F7885825C
:202908001885831974032518F513E43519F5149013CBE0F50FA3E0F510A3E0F511A3E0F5A4
:2029280012A813E514F93395E0FAFBC3E50F98E51099E5119AE51264808BF063F08095F018
:2029480050199013D2E0F9A3E0FAA3E0FB89828A838BF0E4122C3790FFFF229013D2E0F9D3
:20296800A3E0FAA3E0FB89828A838BF07430122C37740129F8E43AFC8B0588828C838DF0D2
:202988007478122C37E51329F8E5143AFC8B0588828C838DF0E4122C37E5182401FCE435D0
:2029A80019FD890F8A108B11C374019C74808DF063F08095F04003022A749013CFE0F8A3BE
:2029C800E0740F58F513751400AE13AF14C3EE940AEF648094805020EC29F515ED3AF51628
:2029E8008B17AE13AF1474302EFE8515828516838517F0122C378050C001C002C003EC2577
:202A08000FF8ED3510FEAF11AA13AB149013E7740AF0E4A3F08A828B83C007C006C005C0A0
:202A280004C001C000122D7BAA82D000D001D004D005D006D00774412A88828E838FF012A1
:202A48002C37D003D002D0019013CFE0FEA3E0C4CEC4540F6ECE540FCE6ECEFF9013CFEE01
:192A6800F0EFA3F01CBCFF011D0229B0E5182402FEE435198E82F5832216
:203C08000D0A0909202A2A205475726E696E672050574D206F6E202A2A200D0A000D0A091C
:203C280009202A2A205475726E696E672050574D206F6666202A2A200D0A000D0A09092095
:203C48002A2A2053657474696E67207570206D696E696D756D206672657175656E637920D7
:203C68002A2A200D0A000D0A0909202A2A2053657474696E67207570206D6178696D756DF3
:203C8800206672657175656E6379202A2A200D0A000D0A0909202A2A20456E746572696EED
:203CA800672049444C45206D6F6465202A2A200D0A000D0A0909202A2A20456E74657269C3
:203CC8006E6720506F7765722D646F776E206D6F6465202A2A200D0A000D0A0D0A092045E9
:203CE80072726F723A20526563656976656420696E76616C696420636F6D6D616E64202729
:203D08002563270D0A000D0A2D2D2D2D2D2D2D2D2D2D2D2D2D2D2D2D2D2D2D2D2D2D2D2D86
:203D28002D2D2D2D2D2D2D2D2D2D2D2D2D2D2D2D2D2D2D2D2D2D2D2D2D2D2D2D2D2D2D2DDB
:203D48002D2D2D2D2D2D2D2D2D2D2D2D2D2D0D0A0D0A00456E74657220636F6D6D616E64BA
:203D68003A20000D0A0909204572726F723A2052652D656E74657220746865206E756D62FF
:203D880065723A20000D0A0909204572726F723A2052656164696E672061206E756D6265CB
:203DA80072206661696C65642C2052656163686564206D6178696D756D206C656E6774684C
:203DC80020737570706F72746564000D0A0D0A09092D2D2D2D2D2D2D2D2D2D2D2D2D2D2DF2
:203DE8002D2D2D2D2D2D2D2D2D2D000D0A09097C20627566666572206964207C0973697AD2
:203E080065097C000D0A09092D2D2D2D2D2D2D2D2D2D2D2D2D2D2D2D2D2D2D2D2D2D2D2D4F
:203E28002D000D0A09097C202020202564202020207C092564097C000D0A09092D2D2D2DAF
:203E48002D2D2D2D2D2D2D2D2D2D2D2D2D2D2D2D2D2D2D2D2D0D0A000D0A0D0A09094E6F95
:203E68002073746F726564206368617261637465727320696E207468652062756666657257
:203E88000D0A000D0A0D0A09097C3D3D3D3D3D3D3D3D3D3D3D3D3D3D3D3D3D3D3D3D3D3D09
:203EA8003D3D3D3D3D3D3D3D3D3D3D3D3D3D3D3D3D3D3D3D3D3D3D3D3D3D3D3D3D3D3D3D5A
:203EC8003D007C0D0A09097C20002563003A200020000D0A09097C3D3D3D3D3D3D3D3D3D90
:203EE8003D3D3D3D3D3D3D3D3D3D3D3D3D3D3D3D3D3D3D3D3D3D3D3D3D3D3D3D3D3D3D3D1A
:123F08003D3D3D3D3D3D3D3D3D3D3D3D3D3D7C0D0A00BE
:043F25000000000098
:06203500E478FFF6D8FD7F
:202A8100AC82AD839013D6E0FEA3E0FFBE000360121F0F9013D5E08C828D83122C37A3DE31
:082AA100FADFF88C828D83221C
:202AA900AFF0AE83E5829013D8F0EEA3F0EFA3F09013DBE4F0A3F09013D8E0FDA3E0FEA307
:202AC900E0FF8D828E838FF0123AE7FCBC20028003BC09120DBD00010E9013D8EDF0EEA346
:202AE900F0EFA3F080DC9013D8EDF0EEA3F0EFA3F08D828E838FF0123AE7FC9013DDE4BCB6
:202B09002D0104F0BC2D028003BC2B0E9013D874012DF0E43EA3F0EFA3F09013D8E0FDA3E8
:202B2900E0FEA3E0FF8D828E838FF0123AE7FCBC3000405DEC24C640589013DBE0FBA3E08B
:202B4900FC9013E5EBF0ECA3F090000AC007C006C005122D5BAB82AC83D005D006D0078D9D
:202B6900828E838FF0123AE7FAA3AD82AE839013D8EDF0EEA3F0EFA3F08A017A00E924D0CD
:202B8900F9EA34FFFA9013DBE92BF0EA3CA3F080949013D8EDF0EEA3F0EFA3F09013DDE012
:202BA90060119013DBE0FEA3E0FFC3E49EFEE49FFF80089013DBE0FEA3E0FF8E828F83224E
:202013007904E94400601B7A01903F25783D75A014E493F2A308B8000205A0D9F4DAF275BA
:02203300A0FF0C
:202BC900AFF0AE83E5829013E1F0EEA3F0EFA3F09013E1E0FDA3E0FEA3E0FF8D028E038F2B
:202BE900048A828B838CF0123AE760070ABA00F10B80EE9013DEE0F525A3E0F526A3E0F5D9
:202C0900278525828526838527F0123AE7F9A38582258583268A828B838CF0E9122C37A3CE
:0E2C2900AA82AB83E970DA8D828E838FF0224F
:1B2C370020F71130F6138883A88220F509F6A8837583002280FEF280F5F0229C
:202C5200C01A85811AE51A24FDF8868318868218E493A324DB600C24256005122D4080F0ED
:202C7200022D58D2D5E493A3C083C082B4731486F018868318868218123AE76054A3122DA2
:202C92004080F5B4630818E618122D408043B46417E630E74618E6F42401F608E6F4340061
:202CB200F6742D122D408033B4782D868318868218E4122D31E583122D30E583122D31E5B7
:202CD20082122D30E582122D3130D5057430122D40D082D083022C62B475F6E6FA18E6F9C2
:202CF200187C107D27122D1BFF7CE87D03122D1BC4F5837C647D00122D1B4283E975F00AD3
:202D120084C445F0F582EF80A97B000BC3E99CF9EA9DFA50F61BE92CF9EA3DFAEB22C45498
:202D32000F700320D51FC2D52490D43440D4C083C082C0F0F582E8C0E01221F9D0E0F8D0AC
:092D5200F0D082D08322D01A22B5
:202D5B00AA83AB828BF09013E5E0A4F8A9F08AF0E0A429F98BF0A3E0A429F5838882222235
:202D7B00AF83E5829013E9F0EFA3F09013E9E0FEA3E0FF30E709C3E49EFCE49FFD80048EC2
:202D9B00048F059013E7E0FEA3E0FF30E709C3E49EFAE49FFB80048E028F039013EBEAF0AB
:202DBB00EBA3F08C828D83122DE3AE82AF839013E9E0A3E030E70CC3E49EFCE49FFD8C82F7
:082DDB008D83228E828F83227A
:202DE300AF83E5829013EDF0EFA3F09013EFE4F09013EDE0FEA3E0FF7D009013EBE0FBA356
:202E0300E0FC235401FA7036EB2BFBEC33FC9013EBEBF0ECA3F09013EBE0FBA3E0FCC3EE0E
:202E23009BEF9C5011ECC313CB13CBFC9013EBEBF0ECA3F080080D9013EFEDF080BC9013D6
:202E4300EFE0FF9013EDE0FDA3E0FE9013EBE0FBA3E0FCC3ED9BEE9C400B9013EDEDC39BD0
:202E6300F0EE9CA3F09013EBE0FDA3E0C313CD13CDFE9013EBEDF0EEA3F08F061FEE70C312
:0C2E83009013EDE0FEA3E08E82F58322A8
:202E8F00AFF0AE83E5829013F5F0EEA3F0EFA3F09013F5E0FDA3E0FEA3E0FF9013F8EDF071
:202EAF00EEA3F0EFA3F08D828E838FF0123AE7FCA3AD82AE839013F5EDF0EEA3F0EFA3F0B7
:202ECF00EC70E31DBDFF011E9013F5EDF0EEA3F0EFA3F09013F0E0FDA3E0FEA3E0FF90131E
:202EEF00F5E0FAA3E0FBA3E0FC9013F3E0F525A3E0F526A825A926152574FFB52502152669
:202F0F00E849603E8D828E838FF0123AE7F9A3AD82AE838A828B838CF0E9122C37A3AA8242
:202F2F00AB839013F5EAF0EBA3F0ECA3F0E970C39013F8E0FDA3E0FEA3E0FF8D828E838F9F
:202F4F00F0229013F5E0FDA3E0FEA3E0FF8D828E838FF0E4122C379013F8E0FDA3E0FEA344
:092F6F00E0FF8D828E838FF022B9
:202F7800AF83E5829013FDF0EFA3F09013FDE0FEA3E0FF30E709C3E49EFCE49FFD80048E9B
:202F9800048F059013FBE0FEA3E0FF33E433FB6009C3E49EF9E49FFA80048E018F029013D3
:202FB800FFE9F0EAA3F08C828D83C003122FEAAE82AF83D0039013FDE0A3E033E4336B604B
:122FD8000CC3E49EFCE49FFD8C828D83228E828F832296
:20203B007800E84400600A790175A000E4F309D8FC783CE84414600C7915900001E4F0A33E
:04205B00D8FCD9FADA
:202FEA00AF83E582901401F0EFA3F0901403E4F0A3F09013FFE0FEA3E0FF7D10901401E0F5
:20300A00FBA3E0FC901405235401F0EB2BFBEC33FC901401EBF0ECA3F0901403E0FBA3E0EB
:20302A00FCEB2BFBEC33FC901403EBF0ECA3F0901405E06008901403E043E001F09014032A
:20304A00E0FBA3E0FCC3EB9EEC9F4013901403EBC39EF0EC9FA3F0901401E043E001F0DD6B
:0D306A009B901401E0FEA3E08E82F583220E
:20307700C01A85811A7E008E831221F9D01A22AFF0AE83E582901407F0EEA3F0EFA3F09013
:203097001407E0FDA3E0FEA3E0FF901406E0FC90141BE4F0A3F0A3F090141EEDF0EEA3F0BF
:2030B700EFA3F0901421ECF09030770231CEC01AE581F51A24FBFF90141BE4F0A3F0A3F078
:2030D700E51A24FBF890141EE6F008E6A3F008E6A3F0901421EFF09030771231CED01A2231
:2030F700E582901417F0E0FF90140DE0C0E0A3E0C0E0A3E0C0E0123112800D90140BE0C020
:20311700E0A3E0C0E08F8222158115811581901415E02401F0A3E03400F022E58290141806
:20313700F0E02430FF24C6500D74072FFF90140AE060034307208F820230F7E582901419AC
:20315700F0E0FFC4540FF582C007123132D00753070F8F82023132E58290141AF090141030
:20317700E0FCA3E0FDA3E0FEA3E0FF901414E0FB75252090141AE0F98B00E828F8EF2354FC
:203197000148FBEC2CFCED33FDEE33FEEF33FFC3EB994007EBC399FB430401E52514FA8AA9
:2031B7002570D5901410ECF0EDA3F0EEA3F0EFA3F0901414EBF022AF83E582901422F0EF88
:2031D700A3F0901422E0FEA3E0FF90140BEEF0EFA3F090141BE0FDA3E0FEA3E0FF90140DC0
:2031F700EDF0EEA3F0EFA3F0901415E4F0A3F090141EE0FDA3E0FEA3E0FF8D828E838FF077
:20321700123AE7FC90141E74012DF0E43EA3F0EFA3F0EC7003023AC3BC25028003023ABB22
:20323700901424E4F0901425F0901426F0901427F0901428F0901429F090142AF090142BA7
:20325700F090142DF090142EF0A3F090143014F0A3F090141EE0FDA3E0FEA3E0FF8D828EA7
:20327700838FF0123AE7FBA3AD82AE8390141EEDF0EEA3F0EFA3F0901434EBF0BB25088B3C
:20329700821230F7023206BB30005003023367EB24C65003023367901430E0F51BA3E0F548
:2032B7001C74FFB51B63B51C60C005C006C00790142EE0FAA3E0FF9013E5EAF0EFA3F09010
:2032D700000AC005C003122D5BAE82AF83D003D0058B027D00EA2EFEED3FFFEE24D0FEEF87
:2032F70034FFFF90142EEEF0EFA3F0D007D006D00590142EE0F5F0A3E045F0600302327477
:203317009014257401F0023274C005C006C0079013E5E51BF0E51CA3F090000AC006C0053D
:20333700C003122D5BAA82AF83D003D005D0067E00EB2AFAEE3FFFEA24D0FAEF34FFFF90FB
:203357001430EAF0EFA3F0D007D006D005023274901434E0FBBB2E2FC005C006C0079014CB
:2033770030E0FAA3E0FFBAFF05BFFF028009D007D006D005023274D007D006D00590143023
:20339700E4F0A3F0023274BB61004014EB2485400F90143474DF5BF090140A7401F08005A6
:2033B70090140AE4F0901434E0FBBB20028075BB2B028067BB2D028059BB4202806FBB4371
:2033D70002807CBB440302365EBB4603023684BB4803023274BB490302365EBB4A030232F9
:2033F70074BB4C028050BB4F0302366CBB50030235CCBB53028077BB5403023274BB5503D3
:20341700023674BB580302367CBB5A0302327402368C9014247401F0023274901426740187
:20343700F00232749014277401F00232749014297401F002327490142A7401F002327490C0
:203457001429E0600E901421E014F9F0901434E7F0800F901421E024FEFFF08F01901434CC
:20347700E7F0901434E0F5821230F702369B901421E024FDFFF08F01870509870609870725
:203497001919901410EDF0EEA3F0EFA3F08D828E838FF0123ACF85821B85831C901430E09B
:2034B700FAA3E0FDBAFF0DBDFF0A901430E51BF0E51CA3F0901424E0704B90142EE0FAA3E5
:2034D700E0FDC3E51B9AE51C9D503A90142EEAC3951BF0ED951CA3F090142EE0FAA3E0FDF7
:2034F7008A068D071ABAFF011DEE4F6010758220C005C0021230F7D002D00580E390142E40
:20351700EAF0EDA3F0901430E0F51EA3E0F51F901410E0FAA3E0FDA3E0FF8A828D838FF0B1
:20353700123AE7F51D603CC3E4951E7480851FF063F08095F0502C151E74FFB51E02151F2E
:20355700851D821230F7901410E0FAA3E0FDA3E0FF0ABA00010D901410EAF0EDA3F0EFA3F5
:20357700F080AC901424E0700302369B90142EE0FEA3E0FFC3E51B9EE51C9F400302369BE1
:2035970090142EEEC3951BF0EF951CA3F090142EE0FEA3E0FF8E028F051EBEFF011FEA4D36
:2035B7007003023693758220C007C0061230F7D006D00780E0901421E024FDFDF08D018704
:2035D700200987210987221919901410E520F0E521A3F0E522A3F0901412E0FDBD80004033
:2035F700089014347443F08020BD600040089014347450F08013BD4000400890143474492F
:20361700F080069014347458F0901434E0FDF582C0051230F775823A1230F775823012308C
:20363700F77582781230F7D005BD4902800EBD50028009901411E0F582123152901410E09C
:20365700F582123152803D9014287401F090142D740AF0802F90142D7408F0802790142DB6
:20367700740AF0801F90142D7410F0801790142B7401F0800F8B821230F7800890142EEEF9
:20369700F0EFA3F090142BE06071901421E024FCFFF08F0187030987050987060987071978
:2036B7001919901410EBF0EDA3F0EEA3F0EFA3F0901410741AF0743FA3F07480A3F090140C
:2036D70010E0F520A3E0F521A3E0F52274012520FAE43521FBAF22901410EAF0EBA3F0EFE6
:2036F700A3F08520828521838522F0123AE7FF70030232068F821230F780C390142DE070AC
:2037170003023206901429E06047901421E014F9F087077E007D007B00901410EFF0EEA337
:20373700F0EDA3F0EBA3F0901428E060030237DE901410E0FBA3E0A3E0A3E07D007E007FCC
:2037570000901410EBF0EDA3F0EEA3F0EFA3F0807690142AE06028901421E024FCFFF08FD1
:20377700018703098705098706098707191919901410EBF0EDA3F0EEA3F0EFA3F080489030
:203797001421E024FEFFF08F01870609870719EF3395E0FDFB901410EEF0EFA3F0EDA3F0FC
:2037B700EBA3F0901428E0701E901410E0FBA3E0FDA3E0A3E07E007F00901410EBF0EDA309
:2037D700F0EEA3F0EFA3F0901428E06041901410E0FBA3E0FDA3E0FEA3E0FF30E72B90149A
:2037F70010E0FBA3E0FDA3E0FEA3E0FFC3E49BFBE49DFDE49EFEE49FFF901410EBF0EDA368
:20381700F0EEA3F0EFA3F08005901428E4F090142C7401F090142DE0F51E75233A75241401
:20383700E4F51BF51C901414E4F0851E8212316E90142CE07026901414E0C4F52085238229
:20385700852483E0FFE5204207852382852483EFF0152374FFB523021524800C901414E0E1
:20387700FF852382852483F0051BE4B51B02051C90142CE0B40100E433F0901410E0FAA358
:20389700E0FBA3E0FEA3E0FFEA4B4E4F709790143BE523F0E524A3F0901432E51BF0E51C20
:2038B700A3F090142EE0F5F0A3E045F0700990142E7401F0E4A3F0901425E0FFE070479019
:2038D7001424E07041851B23851C2490142EE0FAA3E0FBC007AF230F8F067F00C3EE9AEF60
:2038F7009BD0075019758220C007C003C0021230F7D002D003D0071ABAFF011B80D59014D6
:203917002EEAF0EBA3F0901428E0602075822DC0071230F7D00790142EE024FFFDA3E0345A
:20393700FFFE90142EEDF0EEA3F08056901432E0F5F0A3E045F0604A901426E0602075824F
:203957002BC0071230F7D00790142EE024FFFDA3E034FFFE90142EEDF0EEA3F08024901450
:2039770027E0601E758220C0071230F7D00790142EE024FFFDA3E034FFFE90142EEDF0EE9A
:20399700A3F0901424E07048901432E0F523A3E0F52490142EE0FAA3E0FBC0078A068B07A0
:2039B7001ABAFF011BC3E5239EE5249FD0075053EF60067D307E0080047D207E008D82C088
:2039D70007C003C0021230F7D002D003D00780CA90142EE0FEA3E0FF901432E0F523A3E0C2
:2039F700F524C3E5239EE5249F500F90142EEEC39523F0EF9524A3F0801190142EE4F0A3E7
:203A1700F0800890142EEAF0EBA3F090143BE0FEA3E0FF901432E0F523A3E0F524AA23ADCA
:203A370024152374FFB523021524EA4D604590142CE0B40100E433F090142CE070140EBE45
:203A570000010F8E828F83E0C4540FFD901414F0800E8E828F83E0FD53050F901414EDF0E8
:203A7700901414E0F582C007C006123132D006D00780AA901424E0700302320690142EE040
:203A9700FEA3E0FF8E038F051EBEFF011FEB4D7003023206758220C007C0061230F7D006D7
:183AB700D00780E08C821230F7023206901415E0FEA3E08E82F583227B
:0B3F1A003C4E4F20464C4F41543E00EF
:183ACF00AA82AB83123AE76003A380F8C3E5829AF582E5839BF58322FC
:0D200600758127123B03E582600302200371
:1C3AE70020F71430F6148883A88220F507E6A88375830022E280F7E49322E022EE
:043B030075820022A5
:00000001FF
