:0244A500C01243
:10206800AF83E5829012C2F0EFA3F09012C2E0FEB7
:0D207800A3E0FF9012C1E08E828F83F02262
:03200000022006B5
:0320650002200353
:0320030002208533
:10208500901468E4F0A3F090146AF0A3F090147132
:10209500F09014A8F0901471E0600302222E904491
:1020A500A775F080122CA490146C75F000122D1AEF
:1020B50090146C75F000122EEAAE82AF83C007C093
:1020C50006C006C00774E4C0E07444C0E07480C074
:1020D500E0123833E58124FBF581D006D0078E82E6
:1020E5008F83C007C006122B79E582D006D0076022
:1020F500A48E828F83C007C006123061AC82AD8387
:10210500D006D007901468ECF0EDA3F08E828F8393
:10211500C007C006C005C004123061AA82AB83D0D7
:1021250004D005D006D0078A088B09EC4D70030250
:1021350021F5E508450970030221F5901471740134
:10214500F08C008D019014B6E8F0E9A3F0E4A3F05B
:102155009014B9EEF0EFA3F0758200C007C006C079
:1021650005C004122776D004D005D006D007A808EC
:10217500A9099014B6E8F0E9A3F0E4A3F09014B926
:10218500EEF0EFA3F0758201C007C006C005C004DC
:10219500122776D004D005D006D0078C008D017BA0
:1021A50000C007C006C000C001C003C006C0077458
:1021B500F8C0E07444C0E07480C0E0123833E581B3
:1021C50024F8F581D006D007AA08A9097B00C0022A
:1021D500C001C003C006C007741FC0E07445C0E05D
:1021E5007480C0E0123833E58124F8F58102209A25
:1021F500EC4D600B7F008C828D838FF0122D93E563
:10220500084509600FAE08AF097D008E828F838D6A
:10221500F0122D9390454675F080122CA4904561DF
:1022250075F080122CA402209A90457C75F08012DE
:102235002CA490147775F000122D1A901477E0FFF6
:10224500BF6100407ABF7B0050759045A475F08052
:102255001235D5901477E0FF901468E0FDA3E0FEF9
:102265007C0090146AE0FAA3E0FB9014AEEDF0EE6A
:10227500A3F0ECA3F09014B1EAF0EBA3F08F82C0C9
:1022850003C0021225DDE582D002D003600E901452
:102295006A74012AF0E43BA3F0122827901477E032
:1022A500FF7E00C007C00674C0C0E07445C0E0747E
:1022B50080C0E0123833E58124FBF58102209A9035
:1022C5001477E0FFBF2B0280030223EA9046FE75D8
:1022D500F0801235D590147C75F000122D1A9014EB
:1022E5007C75F000122EEAAD82AE839014A8E0FC56
:1022F500BC140040030223D2EC75F002A42480F53F
:1023050008741435F0F5098D828E83C006C005C0AA
:1023150004123061A882A983D004D005D0068508AF
:1023250082850983E8F0E9A3F0E849700302209A61
:10233500850882850983E0F8A3E0F97B00C006C023
:1023450005C004C000C001C003C005C00674D9C0E3
:10235500E07445C0E07480C0E0123833E58124F8AC
:10236500F581D0048C027B009014EB74022AF0E412
:102375003BA3F090000EC0041231CAAA82AB83D0F1
:1023850004D005D006EA24C4FAEB3412FB740D2AF6
:10239500F582E43BF5837401F08C030B0B85088211
:1023A500850983E0F9A3E0FA9014B6E9F0EAA3F011
:1023B500E4A3F09014B9EDF0EEA3F08B82C0041203
:1023C5002776D0049014A8EC04F002209A7418C063
:1023D500E07446C0E07480C0E01238331581158181
:1023E500158102209ABF2D0280030224C090464821
:1023F50075F0801235D5745CC0E07446C0E0748019
:10240500C0E01233FD1581158115819014A975F071
:1024150000122D1A9014A975F000122EEAE582FD1E
:102425007019C005748BC0E07446C0E07480C0E0CC
:10243500123833158115811581D0057C017E00C3C5
:10244500EC9414EE64809480400302209A8D027B04
:1024550000EAB5045FEBB5065BC0059014EBECF044
:10246500EEA3F090000EC006C005C0041231CAAA42
:1024750082AB83D004D005EA24C4FAEB3412FB8A7C
:10248500828B83A3E0F8A3E0F9A3E0FD888289832A
:102495008DF0C005C004C003C002122D93D002D038
:1024A50003D004D005D006740D2AF582E43BF583EC
:1024B500E4F0D0050CBC00870E8084BF3F29904610
:1024C500A375F0801235D57E00BE1E00500C8E829D
:1024D500C00612262DD0060E80EF122AFF90146A30
:1024E500E4F0A3F002209ABF3D3B74B7C0E0744608
:1024F500C0E07480C0E012383315811581158190D4
:102505001468E0FDA3E0FE7C009012CBE0FAA3E0A6
:10251500FB9014BCEAF0EBA3F08D828E838CF01255
:10252500285402209ABF400280030225B1904740FB
:1025350075F0801235D57E007F00C3EE941EEF64E2
:1025450080948050559014EBEEF0EFA3F090000EC0
:10255500C007C0061231CAAC82AD83D006D007ECE5
:1025650024C4FCED3412FD740D2CFAE43DFB8A8283
:102575008B83E0601E8C828D83A3E0FBA3E0FCA32C
:10258500E0FD8B828C838DF0C007C006122D93D0A1
:1025950006D0070EBE00A30F80A0122AFF122BD76C
:1025A500901471E4F09014A8F002209A9046CB752F
:1025B500F0801235D5901477E0FF7E00C007C00685
:1025C50074E5C0E07446C0E07480C0E0123833E5BD
:1025D5008124FBF58102209AE5829014B3F09014D2
:1025E500B4E4F09012CBE0FEA3E0FF9014B1E0FC60
:1025F500A3E0FDC3EC9EED9F50279014AEE0FBA336
:10260500E0FEA3E0FFEC2BFCED3EFD8F029014B342
:10261500E0FF8C828D838AF012300A9014B4740125
:10262500F09014B4E0F58222E5829014B5F0E075DF
:10263500F00EA424C4FE741235F0FF740D2EFCE4D4
:102645003FFD8C828D83E07001228E828F83E0FDB9
:102655007C00C007C006C005C0047474C0E07447A0
:10266500C0E07480C0E0123833E58124FBF581D0E9
:1026750006D0078E828F83A3E0FBA3E0FCA3E0FDD9
:10268500C007C006C003C004C0057489C0E0744714
:10269500C0E07480C0E0123833E58124FAF581D0BA
:1026A50006D0078E828F83A3A3A3A3E0FBA3E0FC40
:1026B500A3E0FDC007C006C003C004C00574A5C0E3
:1026C500E07447C0E07480C0E0123833E58124FA35
:1026D500F581D006D00774072EF582E43FF583E037
:1026E500FCA3E0FDC007C006C004C00574BFC0E080
:1026F5007447C0E07480C0E0123833E58124FBF5EF
:1027050081D006D00774092EF582E43FF583E0FCFD
:10271500A3E0FDC007C006C004C00574D2C0E074C4
:1027250047C0E07480C0E0123833E58124FBF581B1
:10273500D006D007740B2EF582E43FF583E0FEA3A7
:10274500E0FFC006C00774F3C0E07447C0E07480C2
:10275500C0E0123833E58124FBF5817416C0E074BE
:1027650048C0E07480C0E0123833158115811581A9
:1027750022E5829014BBF0E0FF75F00EA4FDAEF0EB
:1027850024C4F582EE3412F583EFF0ED24C4FDEE9A
:102795003412FE74012DFCE43EFF9014B6E0F50CF6
:1027A500A3E0F50DA3E0F50E8C828F83E50CF0E533
:1027B5000DA3F0E50EA3F074042DF50AE43EF50B28
:1027C5009014B9E0F8A3E0FF8804C313CC13CCFB45
:1027D500EC2CFCEB33FBEC250CFCEB350DFBAA0ECE
:1027E500850A82850B83ECF0EBA3F0EAA3F074076E
:1027F5002DF582E43EF583E8F0EFA3F0740D2DF599
:1028050082E43EF5837401F0C000C007741DC0E08A
:102815007448C0E07480C0E0123833E58124FBF5CC
:1028250081229012CDE0FEA3E0FF0EBE00010F90C5
:1028350012CDEEF0EFA3F09012CBE0FCA3E0FDEC9F
:10284500C39EFEED9FFF9012CFEEF0EFA3F022AFF7
:10285500F0AE83E5829014BEF0EEA3F0EFA3F09006
:1028650014BCE0FEA3E0FF9014C3EEF0EFA3F090DC
:1028750014C5E4F0A3F09014ED7410F0E4A3F08E09
:10288500828F83C007C0061231EAE5828583F0D0C6
:1028950006D00745F0701F9014F67410F0E4A3F00D
:1028A5008E828F831232FEE5828583F09014C1F00B
:1028B500E5F0A3F080209014F67410F0E4A3F08EF8
:1028C500828F831232FEE5828583F09014C1240144
:1028D500F0E435F0A3F09014C1E0FEA3E0FFE4F5C9
:1028E50014F515C3E5149EE51564808FF063F0803B
:1028F50095F0400122C007C0069014BEE0C0E0A3D9
:10290500E0C0E0A3E0C0E07446C0E07448C0E074F5
:1029150080C0E0123833E58124FAF581D006D0076E
:102925009014C3E0FAA3E0FBC374109A74808BF093
:1029350063F08095F04003022A189014BEE0F50F6D
:10294500A3E0F510A3E0F5119014C5E0F8A3E0F9B4
:10295500E4F512F513C3E5129410E5136480948031
:102965005058C006C007E512250FFDE5133510FECA
:10297500AF118D828E838FF0124255FD7F00C00707
:10298500C006C001C000C005C007744BC0E0744854
:10299500C0E07480C0E0123833E58124FBF581D0B6
:1029A50000D001D006D00708B80001090512E4B52A
:1029B50012020513D007D006809B9014C5E8F0E9F4
:1029C500A3F09014BEE0F9A3E0FCA3E0FD9014BED3
:1029D500741029F0E43CA3F0EDA3F09014C3E0FCDF
:1029E500A3E0FDEC24F0FCED34FFFD9014C3ECF006
:1029F500EDA3F0C007C006744FC0E07448C0E07492
:102A050080C0E0123833158115811581D006D007B5
:102A1500022AF49014BEE0F9A3E0FCA3E0FD9014B3
:102A2500C5E0F512A3E0F513E4F50FF510C3E50FC6
:102A35009AE51064808BF063F08095F05065C006D0
:102A4500C007E50F29F8E5103CFE8D0788828E83C7
:102A55008FF0124255F87F00C007C006C005C004BC
:102A6500C003C002C001C000C007744BC0E0744879
:102A7500C0E07480C0E0123833E58124FBF581D0D5
:102A850001D002D003D004D005D006D0070512E44A
:102A9500B512020513050FE4B50F020510D007D0D6
:102AA50006808A9014C5E512F0E513A3F09014BED4
:102AB500E0F9A3E0FCA3E0FD9014BEEA29F0EB3CAD
:102AC500A3F0EDA3F09014C3EAC39512F0EB9513B0
:102AD500A3F0C007C006744FC0E07448C0E074801E
:102AE500C0E0123833158115811581D006D0070550
:102AF50014E4B5140205150228E87E007F00901243
:102B0500CBE0FCA3E0FD8E028F03C3EA9CEB9D5056
:102B15002C9012C5E0FBA3E0FCA3E0FDEE2EF9EF3F
:102B250033FAE92BFBEA3CFC8B828C838DF0E412B3
:102B3500300AA312300A0EBE00C40F80C19012CD18
:102B4500E4F0A3F09012CBE0FEA3E0FF9012CFEEED
:102B5500F0EFA3F022E5829014C7F0E070157452EF
:102B6500C0E07448C0E07480C0E0123833158115A8
:102B750081158122AF83E5829014C8F0EFA3F09010
:102B850014CA7401F09014C8E0FEA3E0FFC3EE94EC
:102B950030EF64809480501690486A75F080C007C5
:102BA500C006122CA4D006D0079014CAE4F0C37452
:102BB500C09E74928FF063F08095F0500E90488718
:102BC50075F080122CA49014CAE4F09014CAE0F5B4
:102BD50082227E007F009014EBEEF0EFA3F09000D0
:102BE5000EC007C0061231CAAC82AD83D006D0072D
:102BF500EC24C4FCED3412FD8C828D83A3E4F0A398
:102C0500F0A3F074092CF582E43DF583E4F0A3F01C
:102C15008C828D83A3A3A3A3F0A3F0A3F0740D2C42
:102C2500F582E43DF583E4F08C828D83F074072C06
:102C3500F582E43DF583E4F0A3F00EBE00010FC379
:102C4500EE941EEF648094805003022BDB9012CB30
:0E2C5500E0FEA3E0FF9012CFEEF0EFA3F0221E
:1044A700456E746572207468652073697A65206249
:1044B70065747765656E203438202D2034383030A8
:1044C70020627974657320746F20616C6C6F63610F
:1044D700746520627566666572730A0D0053697AA2
:1044E7006520456E7465726564203D2025640A0D5C
:1044F7000053697A65206F6620627566666572305B
:10450700206973202564206174206C6F636174696E
:104517006F6E2025700A0D0053697A65206F66203B
:10452700627566666572312069732025642061743F
:10453700206C6F636174696F6E2025700A0D0042ED
:1045470075666665722030206E6F7420696E6974B7
:1045570069616C697A65640A0D0042756666657201
:104567002031206E6F7420696E697469616C697A95
:1045770065640A0D00456E74657220746865206F66
:104587007074696F6E7320746F20657865637574D6
:104597006520636F6D6D616E64730A0D0053746FF0
:1045A7007261676520436861726163746572206533
:1045B7006E74657265640A0D0053746F7261676586
:1045C70020436861726163746572203D2025630A28
:1045D7000D004E65772042756666657220496E69E3
:1045E7007469616C697A6564207769746820736996
:1045F7007A65203D20256420627974657320617493
:10460700206C6F636174696F6E203D2025700A0D01
:10461700004E756D626572206F66206E6577206249
:10462700756666657220616C6C6F636174696F6E25
:10463700206C696D697420726561636865640A0D31
:10464700002D2073796D626F6C20726563656976E2
:1046570065640A0D00456E74657220746865206E86
:10466700756D626572206F66207468652062756675
:1046770066657220746F2062652064656C65746579
:10468700640A0D00496E76616C696420427566663E
:104697006572204E756D6265720A0D003F20737951
:1046A7006D626F6C2072656365697665640A0D00DB
:1046B7003D2073796D626F6C2072656365697665FD
:1046C700640A0D00436F6D6D616E642073796D62CE
:1046D7006F6C2072656365697665640A0D00436FC8
:1046E7006D6D616E642043686172616374657220E9
:1046F7003D2025630A0D002B2073796D626F6C20B6
:1047070072656365697665640A0D0A456E7465723C
:1047170020746865206E756D626572206F66206211
:1047270079746573206265747765656E2033302010
:10473700746F203330300A0D00402073796D626F3B
:104747006C2072656365697665640A0D0A46726551
:1047570065696E6720616C6C20616C6C6F63617456
:10476700656420627566666572730A0D0042756638
:10477700666572204E756D626572203D2025640A5C
:104787000D0042756666657220537461727420412C
:10479700646472657373203D2025700A0D004275AD
:1047A7006666657220456E64204164647265737342
:1047B700203D2025700A0D004275666665722053FC
:1047C700697A65203D2025640A0D00427566666595
:1047D700722053746F726167652043686172616309
:1047E70074657273203D2025640A0D004275666664
:1047F7006572204672656520537061636520526556
:104807006D61696E696E67203D2025640A0D002A77
:104817002A2A2A0A0D004275666665722053697A4C
:1048270065205265636569766564206173207061F0
:1048370072616D65746572203D2025640A0D00253F
:1048470070203A00257820000A0D00496E76616CC9
:10485700696420627566666572206E756D62657241
:104867000A0D0053697A65206973206C657373209C
:104877007468616E2034382062797465730A0D009C
:1048870053697A6520697320677265617465722060
:104897007468616E20343830302062797465730A29
:0248A7000D0002
:102C630090000022AF83E5829014CBF0EFA3F03005
:102C730099FD3099FDE59830E1FB9014CBE0FEA37C
:102C8300E0FF8E99C2998E828F83223098FDE5985A
:102C930030E0FB10980280FBAE997F008E828F8319
:102CA30022AFF0AE83E5829014CDF0EEA3F0EFA354
:102CB300F09014CDE0FDA3E0FEA3E0FF7B007C00D9
:102CC3008D828E838FF0124255FA60360DBD00015E
:102CD3000E9014CDEDF0EEA3F0EFA3F08A017A008D
:102CE30089828A83C007C006C005C004C003122CB2
:102CF30067D003D004D005D006D0070BBB00C10CAE
:102D030080BE9014CDEDF0EEA3F0EFA3F00BBB006B
:102D1300010C8B828C8322AFF0AE83E5829014D0BA
:102D2300F0EEA3F0EFA3F07E007F009014D0E0FB61
:102D3300A3E0FCA3E0FDC007C006C005C004C003B8
:102D4300122C8EA982D003D004D005D006D0078BD5
:102D5300828C838DF0E912300AA3AB82AC830EBE62
:102D630000010F9014D0EBF0ECA3F0EDA3F0B90D3C
:102D7300C59014D0EBF0ECA3F0EDA3F08B828C8321
:102D83008DF0E412300A0EBE00010F8E828F832273
:0148B4000003
:102D9300AFF0AE83E5829014D3F0EEA3F0EFA3F08F
:102DA3009014D3E0FDA3E0FEA3E09014D3E0F5F08C
:102DB300A3E045F07001229014D8E4F0A3F090143E
:102DC300E3E0FBA3E0FC9014D6EBF0ECA3F090144B
:102DD300DA74E3F07414A3F09014D6E0FBA3E0FCE0
:102DE3004B60418B018C02C003C0048D008E04C371
:102DF300E998EA9CD004D003502A9014D8EBF0EC65
:102E0300A3F074022BFBE43CFC9014DAEBF0ECA38C
:102E1300F08B828C83E0FBA3E0FC9014D6EBF0EC08
:102E2300A3F080B49014D6E0FEA3E0FF9014D3E0A7
:102E3300FBA3E0FCA3E0EB24FEFBEC34FFFC7402F9
:102E43002BFAE43CFD8A828D83EEF0EFA3F090141D
:102E5300DAE0F8A3E0F988828983EBF0ECA3F08B46
:102E6300828C83E0F8A3E0F9EEB50033EFB5012FD0
:102E730088828983A3A3E0FEA3E0FF8A828D83EE89
:102E8300F0EFA3F08B828C83E0FEA3E0FF8E828FB2
:102E930083E0FEA3E0FF8B828C83EEF0EFA3F09040
:102EA30014D8E0FEA3E0FF4E603C8E828F83E0F8EF
:102EB300A3E0F9E8B5032FE9B5042B8B828C83E0FB
:102EC300FBA3E0FC8E828F83EBF0ECA3F074022E65
:102ED300FEE43FFF8A828D83E0FAA3E0FD8E828FBA
:072EE30083EAF0EDA3F022E9
:06203500E478FFF6D8FD7F
:102EEA00AFF0AE83E5829014DCF0EEA3F0EFA3F02E
:102EFA009014DFE4F0A3F09014DCE0FDA3E0FEA35D
:102F0A00E0FF8D828E838FF0124255FCBC20028036
:102F1A0003BC09120DBD00010E9014DCEDF0EEA306
:102F2A00F0EFA3F080DC9014DCEDF0EEA3F0EFA359
:102F3A00F08D828E838FF0124255FC9014E1E4BC2E
:102F4A002D0104F0BC2D028003BC2B0E9014DC74FE
:102F5A00012DF0E43EA3F0EFA3F09014DCE0FDA312
:102F6A00E0FEA3E0FF8D828E838FF0124255FCBCF7
:102F7A003000405DEC24C640589014DFE0FBA3E02B
:102F8A00FC9014EBEBF0ECA3F090000AC007C0062B
:102F9A00C0051231CAAB82AC83D005D006D0078DEA
:102FAA00828E838FF0124255FAA3AD82AE839014BB
:102FBA00DCEDF0EEA3F0EFA3F08A017A00E924D069
:102FCA00F9EA34FFFA9014DFE92BF0EA3CA3F08027
:102FDA00949014DCEDF0EEA3F0EFA3F09014E1E08E
:102FEA0060119014DFE0FEA3E0FFC3E49EFEE49FBD
:102FFA00FF80089014DFE0FEA3E0FF8E828F832219
:102013007901E94400601B7A019048B4788275A085
:1020230015E493F2A308B8000205A0D9F4DAF27517
:02203300A0FF0C
:10300A0020F71130F6138883A88220F509F6A883E1
:10301A007583002280FEF280F5F0229014E3740199
:10302A00F07400A3F09044A5E493FE740193FF1E8C
:10303A00BEFF011FEE2401FEEF3400FF900001EEF7
:10304A00F0EFA3F09014E3E0FEA3E0FF8E828F83FB
:10305A00A3A3E4F0A3F022AF83E5829014E5F0EF96
:10306A00A3F09014E3E0F5F0A3E045F0700312300A
:10307A00259014E5E0FEA3E0FF4E600E74022EFCDC
:10308A00E43FFDC3EC9EED9F500490000022901493
:10309A00E574022EF0E43FA3F09014E5E0FEA3E00D
:1030AA00FFC3EE9404EF940050099014E57404F001
:1030BA00E4A3F09014E3E0FEA3E0FF9014E7EEF03F
:1030CA00EFA3F09014E974E3F07414A3F09014E7FA
:1030DA00E0FEA3E0FF4E70030231C68E828F83E0CA
:1030EA00FCA3E0FD8C028D038E008F01EAC398FADF
:1030FA00EB99FB8A008B019014E5E0F516A3E0F545
:10310A0017C3E89516E9951750030231A3740425ED
:10311A0016F8E43517F9C3EA98EB99404C8E028FFA
:10312A0003E5162AFAE5173BFB8A828B83ECF0ED5E
:10313A00A3F074022AFCE43BFD8E828F83A3A3E0F2
:10314A00F8A3E0F98C828D83E8F0E9A3F09014E902
:10315A00E0FCA3E0FD8C828D83EAF0EBA3F08E8283
:10316A008F83EAF0EBA3F0801C9014E9E0FCA3E063
:10317A00FD8E828F83A3A3E0FAA3E0FB8C828D836A
:10318A00EAF0EBA3F09014E7E0FCA3E0FD74022C54
:10319A00FCE43DFD8C828D832274022EFEE43FFF07
:1031AA009014E9EEF0EFA3F08E828F83E0FEA3E0A5
:1031BA00FF9014E7EEF0EFA3F00230D79000002260
:1031CA00AA83AB828BF09014EBE0A4F8A9F08AF002
:1031DA00E0A429F98BF0A3E0A429F58388822222AE
:1031EA00AF83E5829014EFF0EFA3F09014EFE0FEC6
:1031FA00A3E0FF30E709C3E49EFCE49FFD80048E50
:10320A00048F059014EDE0FEA3E0FF30E709C3E464
:10321A009EFAE49FFB80048E028F039014F1EAF079
:10322A00EBA3F08C828D83123252AE82AF8390145C
:10323A00EFE0A3E030E70CC3E49EFCE49FFD8C8240
:10324A008D83228E828F8322AF83E5829014F3F0DE
:10325A00EFA3F09014F5E4F09014F3E0FEA3E0FF7E
:10326A007D009014F1E0FBA3E0FC235401FA7036D0
:10327A00EB2BFBEC33FC9014F1EBF0ECA3F0901485
:10328A00F1E0FBA3E0FCC3EE9BEF9C5011ECC313EF
:10329A00CB13CBFC9014F1EBF0ECA3F080080D906B
:1032AA0014F5EDF080BC9014F5E0FF9014F3E0FD06
:1032BA00A3E0FE9014F1E0FBA3E0FCC3ED9BEE9CBF
:1032CA00400B9014F3EDC39BF0EE9CA3F09014F125
:1032DA00E0FDA3E0C313CD13CDFE9014F1EDF0EEA3
:1032EA00A3F08F061FEE70C39014F3E0FEA3E08EE6
:0432FA0082F58322B4
:10203B007800E84400600A790175A000E4F309D840
:10204B00FC7881E84415600C7916900001E4F0A34C
:04205B00D8FCD9FADA
:1032FE00AF83E5829014F8F0EFA3F09014F8E0FE9F
:10330E00A3E0FF30E709C3E49EFCE49FFD80048E3A
:10331E00048F059014F6E0FEA3E0FF33E433FB6068
:10332E0009C3E49EF9E49FFA80048E018F02901483
:10333E00FAE9F0EAA3F08C828D83C003123370AEEB
:10334E0082AF83D0039014F8E0A3E033E4336B60D4
:10335E000CC3E49EFCE49FFD8C828D83228E828FB3
:10336E008322AF83E5829014FCF0EFA3F09014FE5D
:10337E00E4F0A3F09014FAE0FEA3E0FF7D109014A9
:10338E00FCE0FBA3E0FC901500235401F0EB2BFBBB
:10339E00EC33FC9014FCEBF0ECA3F09014FEE0FB8D
:1033AE00A3E0FCEB2BFBEC33FC9014FEEBF0ECA358
:1033BE00F0901500E060089014FEE043E001F090FC
:1033CE0014FEE0FBA3E0FCC3EB9EEC9F40139014B5
:1033DE00FEEBC39EF0EC9FA3F09014FCE043E001E3
:0F33EE00F0DD9B9014FCE0FEA3E08E82F58322BD
:06205F00C200C201C20232
:1033FD00C025E581F52524FBFFE52524FBF8860492
:10340D000886050886068C828D838EF0124255FB48
:10341D0070030235D2BB250280030235B7C202C24A
:10342D0001C200E52524FBF874012CF6E43D08F6F5
:10343D0008A606E52524FBF88604088605088606F9
:10344D008C828D838EF0124255FABA68028017BABB
:10345D006C26D200E52524FBF874012CF6E43D081A
:10346D00F608A6068012D202E52524FBF874012C7D
:10347D00F6E43D08F608A606E52524FBF8860408C3
:10348D0086050886068C828D838EF0124255FEBE0F
:10349D0063028022BE64028013BE6F02801DBE7364
:1034AD00028005BE78188009D201801275180A8035
:1034BD000D751810800875180080037518083001F7
:1034CD004CEF24FDFEFF8E01871909871A09871B12
:1034DD001919AC19AD1AAE1B8C828D838EF0124268
:1034ED005570030235C4AC19AD1AAE1B8C828D8399
:1034FD008EF0124255FC0519E4B51902051A7E002D
:10350D008C828E83C007122C67D00780C5300017C0
:10351D00EF24FCFEFF8E01871C09871D09871E09FC
:10352D00871F191919802F300213EF14F9FF870621
:10353D008E1C751D00751E00751F008019EF24FE71
:10354D00FEFF8E018705098706198D1CEEF51D33CB
:10355D0095E0F51EF51FE518603F90152D7434F0BC
:10356D00E4A3F07440A3F0901530E518F0851C82AB
:10357D00851D83851EF0E51FC007123748D00779DA
:10358D0034E7FE60327D008E828D83C007C001124C
:10359D002C67D001D0070980E8AE1C7D008E828D8E
:1035AD0083C007122C67D007800D7E008B828E831F
:1035BD00C007122C67D007E52524FBF806B60002DC
:1035CD000806023406D02522AFF0AE83E5829015B1
:1035DD0001F0EEA3F0EFA3F0901501E0FDA3E0FEE6
:1035ED00A3E0FF8D828E838FF0124255FC60330D68
:1035FD00BD00010E901501EDF0EEA3F0EFA3F07BF1
:10360D00008C828B83C007C006C005122C67AB826D
:10361D00AC83D005D006D007BBFFC8BCFFC590FF5B
:10362D00FF2290000A022C67AF82AE83ADF0FC90B2
:10363D001508EFF0EEA3F0EDA3F0ECA3F090150755
:10364D00E0FF7E20901508E0FAA3E0FBA3E0FCA3C9
:10365D00E0FD8F2175220075230075240090156CF7
:10366D00E521F0E522A3F0E523A3F0E524A3F08AFC
:10367D00828B838CF0EDC007C006124271AA82D0F6
:10368D0006D00774302AFD90152CF08D04EC24C65D
:10369D00500790152C74072DF01EEE240CFCE4340D
:1036AD0015FD90152CE08C828D83F0901508E0FAB5
:1036BD00A3E0FBA3E0FCA3E0FD901575E521F0E58B
:1036CD0022A3F0E523A3F0E524A3F08A828B838C5B
:1036DD00F0EDC007C0061243B1AA82AB83ACF0FD7A
:1036ED00D006D007901508EAF0EBA3F0ECA3F0EDAF
:1036FD00A3F0901508E0F5F0A3E042F0A3E042F04E
:10370D00A3E045F06003023651901504E0FCA3E000
:10371D00FDA3E0FFEE240CF582E43415F583E08C77
:10372D00828D838FF012300AA3AC82AD830EBE2042
:10373D00E38C828D838FF0E402300AAF82AE83ADCD
:10374D00F0FC901531EFF0EEA3F0EDA3F0ECA3F04B
:10375D00901531E0FCA3E0FDA3E0FEA3E0FF30E710
:10376D003F901530E0FBBB0A3790152DE0F9A3E033
:10377D00FAA3E0FB89828A838BF0742D12300A90B4
:10378D00152D740129F0E43AA3F0EBA3F090153157
:10379D00C3E49CF0E49DA3F0E49EA3F0E49FA3F0AA
:1037AD00901531E0FCA3E0FDA3E0FEA3E0FF901532
:1037BD002DE0F9A3E0FAA3E0FB901530E0F89015A9
:1037CD0004E9F0EAA3F0EBA3F0901507E8F08C8282
:1037DD008D838EF0EF023635C0258581257E008ED6
:1037ED0083122C67D02522AFF0AE83E5829015367B
:1037FD00F0EEA3F0EFA3F0901536E0FDA3E0FEA3ED
:10380D00E0FF901535E0FC90154AE4F0A3F0A3F02D
:10381D0090154DEDF0EEA3F0EFA3F0901550ECF0F8
:10382D009037E502393CC025E581F52524FBFF9055
:10383D00154AE4F0A3F0A3F0E52524FBF890154D0F
:10384D00E6F008E6A3F008E6A3F0901550EFF0902F
:10385D0037E512393CD02522E582901546F0E0FF80
:10386D0090153CE0C0E0A3E0C0E0A3E0C0E012385A
:10387D0080800D90153AE0C0E0A3E0C0E08F822279
:10388D00158115811581901544E02401F0A3E034D4
:10389D0000F022E582901547F0E02430FF24C65059
:1038AD000D74072FFF901539E060034307208F82B9
:1038BD00023865E582901548F0E0FFC4540FF5829B
:1038CD00C0071238A0D00753070F8F820238A0E52A
:1038DD0082901549F090153FE0FCA3E0FDA3E0FEBA
:1038ED00A3E0FF901543E0FB753020901549E0F9FA
:1038FD008B00E828F8EF23540148FBEC2CFCED334A
:10390D00FDEE33FEEF33FFC3EB994007EBC399FB9D
:10391D00430401E53014FA8A3070D590153FECF070
:10392D00EDA3F0EEA3F0EFA3F0901543EBF022AF73
:10393D0083E582901551F0EFA3F0901551E0FEA3B1
:10394D00E0FF90153AEEF0EFA3F090154AE0FDA3DD
:10395D00E0FEA3E0FF90153CEDF0EEA3F0EFA3F039
:10396D00901544E4F0A3F090154DE0FDA3E0FEA307
:10397D00E0FF8D828E838FF0124255FC90154D74B1
:10398D00012DF0E43EA3F0EFA3F0EC700302423101
:10399D00BC25028003024229901553E4F090155482
:1039AD00F0901555F0901556F0901557F09015585C
:1039BD00F0901559F090155AF090155CF090155D3A
:1039CD00F0A3F090155F14F0A3F090154DE0FDA35A
:1039DD00E0FEA3E0FF8D828E838FF0124255FBA394
:1039ED00AD82AE8390154DEDF0EEA3F0EFA3F09008
:1039FD001563EBF0BB25088B82123865023974BB59
:103A0D0030005003023AD5EB24C65003023AD5904C
:103A1D00155FE0F526A3E0F52774FFB52663B527FE
:103A2D0060C005C006C00790155DE0FAA3E0FF90E9
:103A3D0014EBEAF0EFA3F090000AC005C0031231B9
:103A4D00CAAE82AF83D003D0058B027D00EA2EFE75
:103A5D00ED3FFFEE24D0FEEF34FFFF90155DEEF04D
:103A6D00EFA3F0D007D006D00590155DE0F5F0A3DB
:103A7D00E045F060030239E29015547401F002390B
:103A8D00E2C005C006C0079014EBE526F0E527A3BC
:103A9D00F090000AC006C005C0031231CAAA82AF59
:103AAD0083D003D005D0067E00EB2AFAEE3FFFEA65
:103ABD0024D0FAEF34FFFF90155FEAF0EFA3F0D0BA
:103ACD0007D006D0050239E2901563E0FBBB2E2F1F
:103ADD00C005C006C00790155FE0FAA3E0FFBAFF6E
:103AED0005BFFF028009D007D006D0050239E2D00C
:103AFD0007D006D00590155FE4F0A3F00239E2BBC4
:103B0D0061004014EB2485400F90156374DF5BF06A
:103B1D009015397401F08005901539E4F090156316
:103B2D00E0FBBB20028075BB2B028067BB2D0280A2
:103B3D0059BB4202806FBB4302807CBB4403023DF4
:103B4D00CCBB4603023DF2BB48030239E2BB49033D
:103B5D00023DCCBB4A030239E2BB4C028050BB4F45
:103B6D0003023DDABB5003023D3ABB53028077BBE3
:103B7D0054030239E2BB5503023DE2BB5803023D3B
:103B8D00EABB5A030239E2023DFA9015537401F073
:103B9D000239E29015557401F00239E29015567410
:103BAD0001F00239E29015587401F00239E29015D6
:103BBD00597401F00239E2901558E0600E901550DD
:103BCD00E014F9F0901563E7F0800F901550E024A4
:103BDD00FEFFF08F01901563E7F0901563E0F5821D
:103BED00123865023E09901550E024FDFFF08F015B
:103BFD008705098706098707191990153FEDF0EE1E
:103C0D00A3F0EFA3F08D828E838FF012423D85825B
:103C1D002685832790155FE0FAA3E0FDBAFF0DBD61
:103C2D00FF0A90155FE526F0E527A3F0901553E008
:103C3D00704B90155DE0FAA3E0FDC3E5269AE527EC
:103C4D009D503A90155DEAC39526F0ED9527A3F0AA
:103C5D0090155DE0FAA3E0FD8A068D071ABAFF0103
:103C6D001DEE4F6010758220C005C002123865D060
:103C7D0002D00580E390155DEAF0EDA3F090155F9D
:103C8D00E0F529A3E0F52A90153FE0FAA3E0FDA3A6
:103C9D00E0FF8A828D838FF0124255F528603CC378
:103CAD00E495297480852AF063F08095F0502C15E9
:103CBD002974FFB52902152A8528821238659015B9
:103CCD003FE0FAA3E0FDA3E0FF0ABA00010D901555
:103CDD003FEAF0EDA3F0EFA3F080AC901553E07048
:103CED0003023E0990155DE0FEA3E0FFC3E5269EAD
:103CFD00E5279F4003023E0990155DEEC39526F022
:103D0D00EF9527A3F090155DE0FEA3E0FF8E028FE7
:103D1D00051EBEFF011FEA4D7003023E0175822094
:103D2D00C007C006123865D006D00780E090155048
:103D3D00E024FDFDF08D01872B09872C09872D19B6
:103D4D001990153FE52BF0E52CA3F0E52DA3F09090
:103D5D001541E0FDBD800040089015637443F0806F
:103D6D0020BD600040089015637450F08013BD4075
:103D7D000040089015637449F080069015637458DF
:103D8D00F0901563E0FDF582C00512386575823A35
:103D9D00123865758230123865758278123865D0A3
:103DAD0005BD4902800EBD50028009901540E0F519
:103DBD00821238C090153FE0F5821238C0803D90D8
:103DCD0015577401F090155C740AF0802F90155CF6
:103DDD007408F0802790155C740AF0801F90155CB4
:103DED007410F0801790155A7401F0800F8B8212A9
:103DFD003865800890155DEEF0EFA3F090155AE050
:103E0D006071901550E024FCFFF08F018703098746
:103E1D000509870609870719191990153FEBF0ED6C
:103E2D00A3F0EEA3F0EFA3F090153F74A9F0744842
:103E3D00A3F07480A3F090153FE0F52BA3E0F52CD3
:103E4D00A3E0F52D7401252BFAE4352CFBAF2D9055
:103E5D00153FEAF0EBA3F0EFA3F0852B82852C83C1
:103E6D00852DF0124255FF70030239748F8212387E
:103E7D006580C390155CE07003023974901558E0AD
:103E8D006047901550E014F9F087077E007D007BA8
:103E9D000090153FEFF0EEA3F0EDA3F0EBA3F09043
:103EAD001557E06003023F4C90153FE0FBA3E0A3E4
:103EBD00E0A3E07D007E007F0090153FEBF0EDA3C9
:103ECD00F0EEA3F0EFA3F08076901559E060289006
:103EDD001550E024FCFFF08F018703098705098742
:103EED000609870719191990153FEBF0EDA3F0EEB0
:103EFD00A3F0EFA3F08048901550E024FEFFF08F63
:103F0D0001870609870719EF3395E0FDFB90153FF3
:103F1D00EEF0EFA3F0EDA3F0EBA3F0901557E070EA
:103F2D001E90153FE0FBA3E0FDA3E0A3E07E007F24
:103F3D000090153FEBF0EDA3F0EEA3F0EFA3F090A2
:103F4D001557E0604190153FE0FBA3E0FDA3E0FEB7
:103F5D00A3E0FF30E72B90153FE0FBA3E0FDA3E0CE
:103F6D00FEA3E0FFC3E49BFBE49DFDE49EFEE49F06
:103F7D00FF90153FEBF0EDA3F0EEA3F0EFA3F08073
:103F8D0005901557E4F090155B7401F090155CE009
:103F9D00F529752E69752F15E4F526F5279015432E
:103FAD00E4F08529821238DC90155BE070269015BF
:103FBD0043E0C4F52B852E82852F83E0FFE52B4250
:103FCD0007852E82852F83EFF0152E74FFB52E02F7
:103FDD00152F800C901543E0FF852E82852F83F0E1
:103FED000526E4B52602052790155BE0B40100E433
:103FFD0033F090153FE0FAA3E0FBA3E0FEA3E0FF52
:10400D00EA4B4E4F709790156AE52EF0E52FA3F011
:10401D00901561E526F0E527A3F090155DE0F5F02C
:10402D00A3E045F0700990155D7401F0E4A3F090E4
:10403D001554E0FFE07047901553E0704185262E32
:10404D0085272F90155DE0FAA3E0FBC007AF2E0F7B
:10405D008F067F00C3EE9AEF9BD007501975822013
:10406D00C007C003C002123865D002D003D0071AB2
:10407D00BAFF011B80D590155DEAF0EBA3F090150A
:10408D0057E0602075822DC007123865D007901556
:10409D005DE024FFFDA3E034FFFE90155DEDF0EE35
:1040AD00A3F08056901561E0F5F0A3E045F0604A6D
:1040BD00901555E0602075822BC007123865D0072A
:1040CD0090155DE024FFFDA3E034FFFE90155DED3E
:1040DD00F0EEA3F08024901556E0601E758220C08E
:1040ED0007123865D00790155DE024FFFDA3E0347D
:1040FD00FFFE90155DEDF0EEA3F0901553E07048C6
:10410D00901561E0F52EA3E0F52F90155DE0FAA373
:10411D00E0FBC0078A068B071ABAFF011BC3E52E09
:10412D009EE52F9FD0075053EF60067D307E0080B7
:10413D00047D207E008D82C007C003C00212386549
:10414D00D002D003D00780CA90155DE0FEA3E0FF3A
:10415D00901561E0F52EA3E0F52FC3E52E9EE52F1A
:10416D009F500F90155DEEC3952EF0EF952FA3F098
:10417D00801190155DE4F0A3F0800890155DEAF0D4
:10418D00EBA3F090156AE0FEA3E0FF901561E0F55A
:10419D002EA3E0F52FAA2EAD2F152E74FFB52E02EE
:1041AD00152FEA4D604590155BE0B40100E433F046
:1041BD0090155BE070140EBE00010F8E828F83E0B0
:1041CD00C4540FFD901543F0800E8E828F83E0FD59
:1041DD0053050F901543EDF0901543E0F582C007A0
:1041ED00C0061238A0D006D00780AA901553E070F3
:1041FD000302397490155DE0FEA3E0FF8E038F0579
:10420D001EBEFF011FEB4D7003023974758220C075
:10421D0007C006123865D006D00780E08C821238B0
:10422D0065023974901544E0FEA3E08E82F5832279
:0B48A9003C4E4F20464C4F41543E0057
:10423D00AA82AB831242556003A380F8C3E5829A2C
:08424D00F582E5839BF5832255
:0D20060075813F122C63E582600302200308
:1042550020F71430F6148883A88220F507E6A88392
:1042650075830022E280F7E49322E022AF82AE83D9
:10427500ADF0FC901570EFF0EEA3F0EDA3F0ECA31C
:10428500F0901574E4F0901570E0FCA3E0FDA3E058
:10429500FEA3E0FF7B0090156CE0F530A3E0F5315F
:1042A500A3E0F532A3E0F533235401FA7074C0039B
:1042B500E5302530F8E53133F9E53233FAE53333C6
:1042C500FB90156CE8F0E9A3F0EAA3F0EBA3F090FE
:1042D500156CE0F530A3E0F531A3E0F532A3E0F588
:1042E50033C3EC9530ED9531EE9532EF9533D00330
:1042F5005027E533C313F533E53213F532E53113B2
:10430500F531E53013F53090156CF0E531A3F0E5A6
:1043150032A3F0E533A3F080090B901574EBF0029E
:10432500429B901574E0FF901570E0FBA3E0FCA3A1
:10433500E0FDA3E0FE90156CE0F530A3E0F531A3B8
:10434500E0F532A3E0F533C3EB9530EC9531ED950F
:1043550032EE95334017901570EBC39530F0EC9520
:1043650031A3F0ED9532A3F0EE9533A3F090156CE3
:10437500E0FBA3E0FCA3E0FDA3E0C313FEED13FD0A
:10438500EC13FCEB1390156CF0ECA3F0EDA3F0EE41
:10439500A3F08F061FEE708F901570E0FCA3E0FD73
:1043A500A3E0FEA3E08C828D838EF022AF82AE83E4
:1043B500ADF0FC901579EFF0EEA3F0EDA3F0ECA3D2
:1043C500F090157DE4F0A3F0A3F0A3F0901575E04F
:1043D500FCA3E0FDA3E0FEA3E0FF7B20C003901556
:1043E50079E0F8A3E0F9A3E0FAA3E0FB90158123B7
:1043F5005401F0E828F8E933F9EA33FAEB33FB9096
:104405001579E8F0E9A3F0EAA3F0EBA3F090157DA8
:10441500E0F8A3E0F9A3E0FAA3E0FBE828F8E93324
:10442500F9EA33FAEB33FB90157DE8F0E9A3F0EAFE
:10443500A3F0EBA3F0D003901581E0600890157D03
:10444500E043E001F090157DE0F530A3E0F531A300
:10445500E0F532A3E0F533C3E5309CE5319DE53267
:104465009EE5339F401F90157DE530C39CF0E531F7
:104475009DA3F0E5329EA3F0E5339FA3F090157957
:10448500E043E001F01BEB60030243E1901579E0A6
:10449500FCA3E0FDA3E0FEA3E08C828D838EF022D9
:00000001FF
