:024A1200881307
:20206200AFF0AE83E58290138AF0EEA3F0EFA3F090138AE0FDA3E0FEA3E0FF901389E0FCF2
:112082007B008D828E838FF0EC1239A1A3EB0239A1F1
:1520930030980A90138DE599F0C29880051099028000B2912259
:03200000022006B5
:03205F0002200359
:032003000220AF09
:2020A800438E0C9000002290138EE4F0A3F0901390F0A3F0A3F0A3F01223CC901B4AE4F04B
:2020C800901B4B7462F07407A3F090139475F0001237EB904A1475F080122E3D122EB3AE6D
:2020E80082AF8390139BEEF0EFA3F09013A4EEF0EFA3F090139BE0FEA3E0FF901B647410AE
:20210800F0E4A3F08E828F83123C8AE5828583F045F0702A90139BE0FEA3E0FFC3EE943015
:20212800EF64809480401790139BE0FEA3E0FFC374C09E74928FF063F08095F05035904AEA
:202148005675F080122E3D904AA575F080122E3D904A1475F080122E3D122EB3AE82AF8339
:2021680090139BEEF0EFA3F09013A4EEF0EFA3F00220FB90139BE0FEA3E0FF8E828F831223
:202188003B21AE82AF837D00901394EEF0EFA3F0EDA3F0EE4F6012904ABC75F080122E3D3E
:2021A800901399E4F0A3F08009904AE575F080022E3D9013A4E0FEA3E0FF8E828F83123BC4
:2021C80021AE82AF837D0090139DEEF0EFA3F0EDA3F0EE4F6014904B0875F080122E3D9051
:2021E80013A27401F0E4A3F0801D904B3175F080122E3D901394E0FDA3E0FEA3E0FF8D8215
:202208008E838FF0023694904B6675F080122E3D904BB375F080122E3D7C007D007E007FD1
:2022280000C007C006C005C004122E2BAA82901389EAF090FFFF75F000C002122062D002C8
:20224800D004D005D006D007BA6100E433FB705FEA2485405A901397E0F8A3E0F9901B645A
:202268007428F0E4A3F088828983C007C006C005C004C003C002123C8AE5828583F0D00299
:20228800D003D004D005D006D00745F07021904BDC75F080C007C006C005C004C003C00210
:2022A800122E3DD002D003D004D005D006D0078A82C007C006C005C004C003C0021223D7EB
:2022C800D002D003D004D005D006D0070CBC00090DBD00050EBE00010F901390E02401F057
:2022E800A3E03400F0A3E03400F0A3E03400F0EB7047EA24854042C004C005C006C0079084
:202308001394E0F8A3E0F9A3E0FB901397E0FEA3E0FF74012EFCE43FFD901397ECF0EDA33D
:20232800F0EE28F8EF39F9888289838BF0EA1239A1D007D006D005D004BA3F63C007C006D0
:20234800C005C004C002C004C005C006C00774E1C0E0744BC0E07480C0E0123FD4E581247D
:20236800F9F581901390E0C0E0A3E0C0E0A3E0C0E0A3E0C0E07405C0E0744CC0E07480C09D
:20238800E0123FD4E58124F9F581D002D004D005D006D007901390E4F0A3F0A3F0A3F090BF
:2023A8001AF77494F07413A3F0E4A3F08A82C007C006C005C004122415D004D005D006D0BF
:0423C80007022229BD
:204A140053706563696679206275666665722073697A652028343820627974657320746F3C
:204A3400203438303020627974657320696E206D756C7469706C6573206F66203136293A5A
:204A540020003D3D3D3D3D3D3D3D3D3D3D3D3D3D3D3D3D3D3D3D3D3D3D3D3D3D3D3D3D3DFC
:204A74003D3D3D3D3D3D3D3D3D3D3D3D3D3D3D3D3D3D3D3D3D3D3D3D3D3D3D3D3D3D3D3D82
:204A94003D3D3D3D3D3D3D3D3D3D3D3D3D3D0D0A00496E76616C69642073697A6520656E00
:204AB40074657265640D0A00537563636573733A206D616C6C6F6320666F722062756666E2
:204AD400657230207375636365737366756C0D0A004572726F723A206D616C6C6F632066E2
:204AF4006F722062756666657230206661696C65640D0A00537563636573733A206D616CEE
:204B14006C6F6320666F722062756666657231207375636365737366756C0D0A0045727271
:204B34006F723A206D616C6C6F6320666F722062756666657231206661696C65642C206348
:204B54006C656172696E6720627566666572730D0A000D0A2D2D2D2D2D2D2D2D2D2D2D2D08
:204B74002D2D2D2D2D2D2D2D2D2D2D2D2D2D2D2D2D2D2D2D2D2D2D2D2D2D2D2D2D2D2D2D81
:204B94002D2D2D2D2D2D2D2D2D2D2D2D2D2D2D2D2D2D2D2D2D2D2D2D2D2D0D0A0D0A0045FC
:204BB4006E74657220636F6D6D616E6420282B2C202D2C203F2C203D2C204029206F722053
:204BD400696E7075743A20000D0A0909000D0A09546F74616C2043686172616374657273CA
:204BF4002072656365697665643A20256C640D0A0009546F74616C2043686172616374658C
:204C140072732072656365697665642073696E6365206C6173742071756572793A20256CED
:044C3400640D0A0001
:2023CC00759850758920D299C29122E582901AF6F0E0FFFEBEFF0122BE08028005BE0D20AA
:2023EC008012900008122E0C900020122E0C900008022E0C90000D122E0C90000A022E0CCC
:20240C007E008F828E83022E0CE582901AFAF0901AFBE4F0A3F0901AFAE0FFBF61004006E4
:20242C00EF2485400122901AFAE0FFBF2B02801BBF2D03022858BF3D03022CA9BF3F030241
:20244C0029ADBF4003022D03022DDF901BBCE4F0A3F0901AF7E0F508A3E0F509A3E0F50A09
:20246C007A007B00C3EA94D2EB648094805053901B5AEAF0EBA3F0900009C003C002123AFB
:20248C00C5A882A983D002D003E82508F8E93509F9AE0A740728F8E439F9888289838EF046
:2024AC001249F6F8A31249F6F9901BBCE0FDA3E0FE901BBCE82DF0E93EA3F00ABA00A50B7B
:2024CC0080A2904C3875F080122E3D904C6475F080122E3D122EB3858210858311901BBC2C
:2024EC00E0FBA3E0FC901BBCE5102BF0E5113CA3F0AB10AC11C3EB941EEC9400400DAB10DA
:20250C00AC11C3742C9B74019C5029904CA875F080122E3D904CBE75F080122E3D901AF7E7
:20252C00E508F0E509A3F0E50AA3F075822B122415022DFA901BBCE0FBA3E0FC904A12E488
:20254C0093F9740193FAC3E99BEA9C500C904D0075F080122E3D022DFA85080B85090C8599
:20256C000A0D78027900C3E894D2E964809480505E901B5AE8F0E9A3F0900009C001C00032
:20258C00123AC5AD82AE83D000D001ED250BFDEE350CFCAE0D8D828C838EF01249F6FDA390
:2025AC001249F6FCA31249F6FEED4C700A901AFBE8F0E9A3F08018B8D10EB9000B904D361E
:2025CC0075F080122E3D800708B8009A098097AA08AB09AC0A901AFBE0F50EA3E0F50F90D1
:2025EC001B5AE50EF0E50FA3F0900009C004C003C002123AC585820B85830CE50B2508F5C5
:20260C0012E50C3509F513850A14851082851183123B21AD82AE83D002D003D0048E017E3E
:20262C00008512828513838514F0ED1239A1A3E91239A1A3EE1239A1ED49700C904D5A75A5
:20264C00F080122E3D022DFAC002C003C004904D7D75F080C004C003C002122E3DD002D068
:20266C0003D004E50B2508F9E50C3509FDAE0A740529F8E43DFB8E0488828B838CF0E50EAE
:20268C001239A1A3E50F1239A1740729FAE43DFB8E048A828B838CF0E5101239A1A3E51163
:2026AC001239A1740329F9E43DFD89828D838EF0E41239A1A31239A1C004C003C002749C1A
:2026CC00C0E0744DC0E01239BC1581158174BCC0E0744DC0E01239BC1581158174D3C0E06F
:2026EC00744DC0E01239BC15811581D002D003D004850E12850F13E4F510F511D004D003DF
:20270C00D002C3E51094D2E511648094804003022846901B5AE510F0E511A3F0900009C050
:20272C0004C003C002123AC5AD82AE83D002D003D004ED2AFDEE3BF98C068D8289838EF0B9
:20274C001249F6FDA31249F6F9A31249F6FEED497014E5104511600E7401B5100614B511B3
:20276C0002800302283B901B5AE510F0E511A3F0900009C004C003C002123AC5AD82AE839D
:20278C00D002D003D004ED2AFDEE3BF98C06C002C003C00474072DF8E439FB8E0488828BC4
:2027AC00838CF01249F6F8A31249F6FB74052DFDE439F98D8289838EF01249F6FAA312493B
:2027CC00F6FCC006C005C004C003C002C001C000C003C002C00474F1C0E0744DC0E01239AC
:2027EC00BCE58124FAF581D001D002D003D004D005D0068D8289838EF01249F6FDA312493D
:20280C00F6F9EDB51206E9B513028008D004D003D002801BD004D003D002904E0775F08071
:20282C00C004C003C002122E3DD002D003D0040510E4B51002051102270E741BC0E0744E4F
:20284C00C0E01239BC15811581022DFA904E3B75F080122E3D901AF7E0FCA3E0FDA3E0FE77
:20286C008C828D838EF012303D904E6975F080122E3D122EB3858212858313901AF7E0FAE6
:20288C00A3E0FBA3E0FC78027900C3E894D2E96480948040030229A1901B5AE8F0E9A3F0E2
:2028AC00900009C004C003C002C001C000123AC5AD82AE83D000D001D002D003D004ED2A07
:2028CC00F50BEE3BF50C8C0D7405250BF508E4350CF509850D0A850882850983850AF01213
:2028EC0049F6FDA31249F6FEEDB51206EEB513028003022999C002C003C004850B82850CF9
:20290C0083850DF01249F6FCA31249F6FDA31249F6FE8C828D838EF0C004C003C002C001D0
:20292C00C000123694D000D001D002D003D004850B82850C83850DF0E41239A1A31239A1CE
:20294C00A31239A1850882850983850AF0141239A1A31239A17403250BFCE4350CFDAE0D2E
:20296C008C828D838EF0E41239A1A31239A17407250BFCE4350CFDAE0D8C828D838EF0E44C
:20298C001239A1A31239A1D004D003D00208B80001090228968A828B838CF012303D022D69
:2029AC00FA904EA875F080122E3D74CCC0E0744EC0E01239BC15811581904F1475F08012CA
:2029CC002E3D901AF7E0F512A3E0F513A3E0F5147A007B00C3EA94D2EB64809480400302B1
:2029EC002B42901B5AEAF0EBA3F0900009C003C002123AC5A882A983D002D003C002C00352
:202A0C00E82512F8E93513F9AB14888289838BF01249F6F8A31249F6F9A31249F6E849D0EE
:202A2C0003D002700FEA4B600BBA0105BB00028003022B3AC003C002745DC0E0744FC0E0D6
:202A4C001239BC15811581D002D003901B5AEAF0EBA3F0900009C003C002123AC5A882A933
:202A6C0083D002D003C002C003E82512F8E93513F9AB14740728FAE439FD8B068A828D8339
:202A8C008EF01249F6F510A31249F6F511740328FCE439FD8B068C828D838EF01249F6F534
:202AAC000BA31249F6F50CE510C3950BF50EE511950CF50F888289838BF01249F6F508A392
:202ACC001249F6F509A31249F6F50AE51024FFFCE51134FFFEEC2508FCEE3509FEAD0A7403
:202AEC000528F8E439F9888289838BF01249F6F8A31249F6F9C003C002C00EC00FC00BC01B
:202B0C000CC004C006C005C008C009C00AC000C00174A3C0E0744FC0E07480C0E0123FD49F
:202B2C00E58124F1F581D002D003D003D0020ABA00010B0229E074C9C0E0744FC0E01239E8
:202B4C00BC158115817411C0E07450C0E07480C0E0123FD4158115811581AC12AD13AE143D
:202B6C0074032512F9E43513FAAB14E4F512F513C004C005C00689828A838BF01249F6F89F
:202B8C00A31249F6FEC3E51298E51364808EF063F08095F0D006D005D0044003022C7B9038
:202BAC001B647440F0E4A3F0851282851383C006C005C004C003C002C001123C8AE58285E2
:202BCC0083F0D001D002D003D004D005D00645F0702DC006C005C004C003C002C001742E78
:202BEC00C0E07450C0E07480C0E0123FD4158115811581D001D002D003D004D005D006C095
:202C0C0001C002C0038C828D838EF01249F6F8A31249F6FAA31249F6FBE51228F8E5133A17
:202C2C00FA88828A838BF01249F6F87B00C006C005C004C003C002C001C000C0037433C0B9
:202C4C00E07450C0E07480C0E0123FD4E58124FBF581D001D002D003D004D005D006051264
:202C6C00E4B512020513D003D002D001022B7C8C828D838EF01249F6FCA31249F6FDA312D5
:202C8C0049F6FE8C828D838EF0E41239A189828A838BF01239A1A31239A1022DFA90503632
:202CAC0075F080122E3D901AF7E0FCA3E0FDA3E0FE8C828D838EF01249F6F9A31249F6FA54
:202CCC00A31249F6FB74032CFCE43DFD8C828D838EF01249F6FCA31249F6FD901B24ECF0B7
:202CEC00EDA3F0ED3395E0A3F0A3F089828A838BF0123199022DFA90505C75F080122E3D57
:202D0C00901AF7E0FCA3E0FDA3E0FE7A007B00C3EA94D2EB648094804003022DB3901B5A14
:202D2C00EAF0EBA3F0900009C006C005C004C003C002123AC5A882A983D002D003D004D012
:202D4C0005D006C002C003E82CF8E93DF98E03888289838BF01249F6F512A31249F6F51366
:202D6C00A31249F6F514D003D002E5124513602FC004C005C006A812A913AE14888289832A
:202D8C008EF0C006C005C004C003C002123694D002D003D004D005D006D006D005D0040A4C
:202DAC00BA00010B022D1B7487C0E07450C0E07480C0E0123FD41581158115819050A77581
:202DCC00F080122E3D9050A775F080122E3D1220AF801B7E00C007C00674F4C0E07450C0FE
:202DEC00E07480C0E0123FD4E58124FBF5819050A775F080122E3D90512175F080022E3DF6
:202E0C00AF83E582901AFDF0EFA3F010990280FB901AFDE0FEA3E0FF8E998E828F8322C29A
:202E2C009110980280FBD291AE997F008E828F8322AFF0AE83E582901AFFF0EEA3F0EFA380
:202E4C00F0901AFFE0FDA3E0FEA3E0FF7B007C008D828E838FF01249F6FA60360DBD0001AB
:202E6C000E901AFFEDF0EEA3F0EFA3F08A017A0089828A83C007C006C005C004C003122E79
:202E8C000CD003D004D005D006D0070BBB00C10C80BE901AFFEDF0EEA3F0EFA3F00BBB00D1
:202EAC00010C8B828C8322901B027460F0901B03E4F0901B04F0901B05F0901B06F0901B3D
:202ECC0007F0901B08F0901B09F0901B0AF0901B0BF0901B0CF0901B0DF0901B0EF0901BBA
:202EEC000FF0901B10F0901B11F0901B12F0901B13F0901B14F0901B15F0901B16F0901B5A
:202F0C0017F0901B18F0901B19F0901B1AF0901B1BF0901B1CF0901B1DF0A3F0901B1FF010
:202F2C00A3F0901B1CE06003023031122E2BAE82901B02EEF0901B1FE02401F0A3E03400E9
:202F4C00F08E821223D7901B02E0FFBF30004005EF24C65033901B02E0FFBF0D02802990AA
:202F6C001B4AE4F0901B4B7419F0E4A3F0901B0375F0001237EB90514A75F080122E3D90BE
:202F8C001B1FE4F0A3F08036901B02E0FFBF0D2E901B53E4F0A3F0A3F0901B0375F000122B
:202FAC003933901B0375F000123813E5828583F0901B1DF0E5F0A3F0901B1C7401F0901BD3
:202FCC006D7402F0741BA3F0E4A3F0901B7004F0E4A3F0901B0375F000123D9E901B1FE049
:202FEC00FEA3E0FFC3EE9418EF648094805003022F2E90516C75F080122E3D90514A75F010
:20300C0080122E3D901B4AE4F0901B4B7419F0E4A3F0901B0375F0001237EB901B1FE4F00F
:20302C00A3F0022F2E901B1DE0FEA3E08E82F58322AFF0AE83E582901B21F0EEA3F0EFA3B9
:20304C00F0749CC0E0744DC0E01239BC1581158174B2C0E07451C0E01239BC15811581745E
:20306C00D3C0E0744DC0E01239BC15811581901B21E0FDA3E0FEA3E0FF8D158E168F17782D
:20308C00007900C3E894D2E9648094804003023189901B5AE8F0E9A3F0900009C007C0063B
:2030AC00C005C001C000123AC5AB82AC83D000D001D005D006D007EB2DFBEC3EFC8F028BD9
:2030CC00828C838AF01249F6FBA31249F6FCA31249F6FAEB4C700FE849600BB80105B900E6
:2030EC00028003023181C005C006C007901B5AE8F0E9A3F0900009C005C001C000123AC5F0
:20310C00AE82AF83D000D001D005EE2515FEEF3516FFAD1774072EFAE43FFB8D048A828BBF
:20312C00838CF01249F6FAA31249F6FB74052EFEE43FFF8E828F838DF01249F6FEA3124997
:20314C00F6FFC007C006C005C001C000C002C003C006C00774F1C0E0744DC0E01239BCE537
:20316C008124FAF581D000D001D005D006D007D007D006D00508B800010902308F741BC0AF
:20318C00E0744EC0E01239BC1581158122AFF0AE83E582901B28F0EEA3F0EFA3F0901B28BC
:2031AC00E0FDA3E0FEA3E0FF901B2B7446F0901B2CF0901B2DE4F0901B2EF0901B2FF0900D
:2031CC001B307430F0901B317478F0901B327430F0901B33F0901B34F0901B35F0901B368D
:2031EC00E4F0901B24E0F9A3E0FAA3E0FBA3E0FC901B24E0F5F0A3E042F0A3E042F0A3E04C
:20320C0045F0701674CBC0E07451C0E07480C0E0123FD415811581158122C007C006C005B4
:20322C00C004C003C002C00174F6C0E07451C0E01239BC15811581D001D002D003D004D0BC
:20324C0005D006D007E4F518F519C005C006C007A818E519FD3395E0FEFFC3E899ED9AEE46
:20326C009BEF64808CF063F08095F0D007D006D00540030234B5901B647410F0E4A3F085D1
:20328C001882851983C007C006C005C004C003C002C001123C8AE5828583F0D001D002D061
:2032AC0003D004D005D006D00745F060030233D4C001C002C003C0048D008E038F04AA188B
:2032CC00AC19EA28F8EC3BFB901B377407F0E4A3F0A3F0A3F0901B3BE8F0EBA3F0901B3DE3
:2032EC007410F0901B3075F000C007C006C005C004C003C002C0011234C57435C0E0745298
:20330C00C0E07480C0E0123FD4158115811581D001D002D003D004D005D006D007751A0229
:20332C00751B00D004D003D002D001C3E51A9406E51B64809480505FC001C002C003C0049A
:20334C00E51A2430F582E51B341BF583E0F87C00C007C006C005C004C003C002C001C00060
:20336C00C0047433C0E07450C0E07480C0E0123FD4E58124FBF581D001D002D003D004D004
:20338C0005D006D007051AE4B51A02051BD004D003D002D0018094C007C006C005C004C047
:2033AC0003C002C001743DC0E07452C0E07480C0E0123FD4158115811581D001D002D003D3
:2033CC00D004D005D006D007C001C002C003C0048D828E838FF01249F6F8A3AD82AE837C1A
:2033EC0000901B377405F0E4A3F0A3F0A3F0901B3BE8F0ECA3F0901B3D7408F0901B2B75FD
:20340C00F000C007C006C005C004C003C002C0011234C5D001D002D003D004901B2DE0FC4B
:20342C007B00C004C003C002C001C004C0037433C0E07450C0E07480C0E0123FD4E5812486
:20344C00FBF581D001D002D003D004901B2EE0FC7B00C004C003C002C001C004C00374333D
:20346C00C0E07450C0E07480C0E0123FD4E58124FBF5817440C0E07452C0E07480C0E01228
:20348C003FD4158115811581D001D002D003D004D005D006D0070518E4B518020519D004BD
:2034AC00D003D002D0010232567442C0E07452C0E01239BC1581158122AFF0AE83E5829028
:2034CC001B3EF0EEA3F0EFA3F0901B3DE0FFBF04028028BF08028023BF1002801EBF2002A4
:2034EC008019901B3EE0FCA3E0FDA3E0FE8C828D838EF0E41239A190FFFF227E00901B78A4
:20350C007404F0E4A3F08F828E83123E8785822585832674032525F520E43526F521901B97
:20352C0037E0F51CA3E0F51DA3E0F51EA3E0F51FA820E521F93395E0FAFBC3E51C98E51DD3
:20354C0099E51E9AE51F64808BF063F08095F05019901B3EE0F9A3E0FAA3E0FB89828A8330
:20356C008BF0E41239A190FFFF22901B3EE0F9A3E0FAA3E0FB89828A838BF074301239A164
:20358C00740129F8E43AFC8B0588828C838DF074781239A1E52029F8E5213AFC8B05888275
:2035AC008C838DF0E41239A1E5252401FCE43526FD891C8A1D8B1EC374019C74808DF0639F
:2035CC00F08095F04003023687901B3BE0F8A3E0740F58F520752100AE20AF21C3EE940A34
:2035EC00EF648094805020EC29F522ED3AF5238B24AE20AF2174302EFE8522828523838507
:20360C0024F01239A18050C001C002C003EC251CF8ED351DFEAF1EAA20AB21901B64740A36
:20362C00F0E4A3F08A828B83C007C006C005C004C001C000123C8AAA82D000D001D004D01D
:20364C0005D006D00774412A88828E838FF01239A1D003D002D001901B3BE0FEA3E0C4CEF8
:20366C00C4540F6ECE540FCE6ECEFF901B3BEEF0EFA3F01CBCFF011D0235C3E5252402FE0C
:08368C00E435268E82F583224D
:204C38000D0A0D0A09202A2A2A20436F6D6D616E6420666F7220616464696E6720612062B7
:204C58007566666572202A2A2A0D0A000D0A09083E2053706563696679206275666665727C
:204C78002073697A6520746F20626520616C6C6F636174656420283330206279746573207C
:204C9800746F20333030206279746573293A200009204572726F723A20496E76616C696448
:204CB8002073697A65000D0A09202D202D202D202D202D202D202D202D202D202D202D2072
:204CD8002D202D202D202D202D202D202D202D202D202D202D202D202D202D202D202D20EC
:204CF8002D202D202D202D0009204572726F723A204F7574206F66206D656D6F72792C20C9
:204D18006672656520736F6D65206275666665727320746F20636F6E74696E756500094522
:204D380072726F723A2062756666657220636F756C64206E6F742062652061646465640D14
:204D58000A00094572726F723A204661696C656420616C6C6F636174696E67206D656D6F73
:204D780072790D0A00094E65772062756666657220686173206265656E20637265617465A2
:204D9800640D0A000D0A0D0A09092D2D2D2D2D2D2D2D2D2D2D2D2D2D2D2D2D2D2D2D2D2D62
:204DB8002D2D2D000D0A09097C6275666665722069647C0973697A65097C000D0A09092D2D
:204DD8002D2D2D2D2D2D2D2D2D2D2D2D2D2D2D2D2D2D2D2D2D2D2D2D000D0A09097C20209E
:204DF80020202564202020207C092564097C00203C2D2D2D2D2D204E65776C79206164640A
:204E18006564000D0A09092D2D2D2D2D2D2D2D2D2D2D2D2D2D2D2D2D2D2D2D2D2D2D2D2D23
:204E38000D0A000D0A0D0A09202A2A2A20436F6D6D616E6420666F722072656D6F76696E08
:204E580067206120627566666572202A2A2A0D0A000D0A09083E2053706563696679206228
:204E7800756666657220746F2062652064656C61746564202873656C6563742069642066EA
:204E9800726F6D20746865206C697374293A20000D0A0D0A09202A2A2A20436F6D6D616E9C
:204EB8006420666F722061207175657279202A2A2A0D0A000D0A0D0A09092D2D2D2D2D2D35
:204ED8002D2D2D2D2D2D2D2D2D2D2D2D2D2D2D2D2D2D2D2D2D2D2D2D2D2D2D2D2D2D2D2D1A
:204EF8002D2D2D2D2D2D2D2D2D2D2D2D2D2D2D2D2D2D2D2D2D2D2D2D2D2D2D000D0A0909B2
:204F18007C20427566666572206964207C2073746172742D61646472207C20656E642D6163
:204F3800646472207C206E53746F7261676543686172207C20667265652D737061636520EB
:204F58007C090D0A000D0A09092D2D2D2D2D2D2D2D2D2D2D2D2D2D2D2D2D2D2D2D2D2D2D69
:204F78002D2D2D2D2D2D2D2D2D2D2D2D2D2D2D2D2D2D2D2D2D2D2D2D2D2D2D2D2D2D2D2D79
:204F98002D2D2D2D2D2D2D2D2D2D000D0A09097C25313064207C20202025313170207C25F4
:204FB8003970207C25313364207C25313164207C000D0A09092D2D2D2D2D2D2D2D2D2D2D6C
:204FD8002D2D2D2D2D2D2D2D2D2D2D2D2D2D2D2D2D2D2D2D2D2D2D2D2D2D2D2D2D2D2D2D19
:204FF8002D2D2D2D2D2D2D2D2D2D2D2D2D2D2D2D2D2D2D2D2D2D0D0A000D0A0D0A094275B6
:2050180066666572203020636F6E74656E74733A200D0A0D0A000D0A0909002563000D0AA7
:205038000D0A09202A2A2A20436F6D6D616E6420666F7220612068657864756D70202A2A44
:205058002A0D0A000D0A0D0A09202A2A2A20436F6D6D616E6420666F722066726565696E43
:2050780067206D656D6F7279202A2A2A0D0A000D0A0D0A09094D656D6F727920686173200E
:205098006265656E2066726565640D0A0D0A000D0A2D2D2D2D2D2D2D2D2D2D2D2D2D2D2D50
:2050B8002D2D2D2D2D2D2D2D2D2D2D2D2D2D2D2D2D2D2D2D2D2D2D2D2D2D2D2D2D2D2D2D38
:2050D8002D2D2D2D2D2D2D2D2D2D2D2D2D2D2D2D2D2D2D2D2D2D2D0D0A0D0A000D0A0D0A51
:2050F80009204572726F723A20526563656976656420696E76616C696420636F6D6D616E42
:205118006420272563270D0A00456E74657220636F6D6D616E6420282B2C202D2C203F2C66
:20513800203D2C204029206F7220696E7075743A20000D0A0909204572726F723A20526536
:205158002D656E74657220746865206E756D6265723A20000D0A0909204572726F723A20DB
:2051780052656164696E672061206E756D626572206661696C65642C2052656163686564B6
:20519800206D6178696D756D206C656E67746820737570706F72746564000D0A09097C206C
:2051B800627566666572206964207C0973697A65097C000D0A0D0A09094E6F2073746F72A6
:2051D8006564206368617261637465727320696E20746865206275666665720D0A000D0A8E
:2051F8000D0A09097C3D3D3D3D3D3D3D3D3D3D3D3D3D3D3D3D3D3D3D3D3D3D3D3D3D3D3D83
:205218003D3D3D3D3D3D3D3D3D3D3D3D3D3D3D3D3D3D3D3D3D3D3D3D3D3D3D3D007C0D0A37
:2052380009097C20003A200020000D0A09097C3D3D3D3D3D3D3D3D3D3D3D3D3D3D3D3D3D7C
:205258003D3D3D3D3D3D3D3D3D3D3D3D3D3D3D3D3D3D3D3D3D3D3D3D3D3D3D3D3D3D3D3D96
:0A5278003D3D3D3D3D3D7C0D0A002B
:04528D00000000001D
:20369400AFF0AE83E582901B41F0EEA3F0EFA3F0901B41E0FDA3E0FEA3E0901B41E0F5F082
:2036B400A3E045F0700122901B46E4F0A3F0901B5CE0FBA3E0FC901B44EBF0ECA3F0901BFE
:2036D40048745CF0741BA3F0901B44E0FBA3E0FC4B60418B018C02C003C0048D008E04C3F4
:2036F400E998EA9CD004D003502A901B46EBF0ECA3F074022BFBE43CFC901B48EBF0ECA32E
:20371400F08B828C83E0FBA3E0FC901B44EBF0ECA3F080B4901B44E0FEA3E0FF901B41E097
:20373400FBA3E0FCA3E0EB24FEFBEC34FFFC74022BFAE43CFD8A828D83EEF0EFA3F0901B76
:2037540048E0F8A3E0F988828983EBF0ECA3F08B828C83E0F8A3E0F9EEB50033EFB5012F2F
:2037740088828983A3A3E0FEA3E0FF8A828D83EEF0EFA3F08B828C83E0FEA3E0FF8E828FE2
:2037940083E0FEA3E0FF8B828C83EEF0EFA3F0901B46E0FEA3E0FF4E603C8E828F83E0F881
:2037B400A3E0F9E8B5032FE9B5042B8B828C83E0FBA3E0FC8E828F83EBF0ECA3F074022E47
:1737D400FEE43FFF8A828D83E0FAA3E0FD8E828F83EAF0EDA3F022AA
:06203500E478FFF6D8FD7F
:2037EB00AC82AD83901B4BE0FEA3E0FFBE000360121F0F901B4AE08C828D831239A1A3DE49
:08380B00FADFF88C828D8322A4
:20381300AFF0AE83E582901B4DF0EEA3F0EFA3F0901B50E4F0A3F0901B4DE0FDA3E0FEA318
:20383300E0FF8D828E838FF01249F6FCBC20028003BC09120DBD00010E901B4DEDF0EEA333
:20385300F0EFA3F080DC901B4DEDF0EEA3F0EFA3F08D828E838FF01249F6FC901B52E4BC26
:203873002D0104F0BC2D028003BC2B0E901B4D74012DF0E43EA3F0EFA3F0901B4DE0FDA377
:20389300E0FEA3E0FF8D828E838FF01249F6FCBC3000405DEC24C64058901B50E0FBA3E079
:2038B300FC901B5AEBF0ECA3F090000AC007C006C005123AC5AB82AC83D005D006D0078D32
:2038D300828E838FF01249F6FAA3AD82AE83901B4DEDF0EEA3F0EFA3F08A017A00E924D0BB
:2038F300F9EA34FFFA901B50E92BF0EA3CA3F08094901B4DEDF0EEA3F0EFA3F0901B52E024
:203913006011901B50E0FEA3E0FFC3E49EFEE49FFF8008901B50E0FEA3E0FF8E828F8322DC
:202013007904E94400601B7A0190528D78BA75A01BE493F2A308B8000205A0D9F4DAF275BB
:02203300A0FF0C
:20393300AFF0AE83E582901B56F0EEA3F0EFA3F0901B56E0FDA3E0FEA3E0FF8D028E038FB9
:20395300048A828B838CF01249F660070ABA00F10B80EE901B53E0F534A3E0F535A3E0F5A8
:20397300368534828535838536F01249F6F9A38582348583358A828B838CF0E91239A1A368
:0E399300AA82AB83E970DA8D828E838FF022D8
:1B39A10020F71130F6138883A88220F509F6A8837583002280FEF280F5F02225
:2039BC00C029858129E52924FDF8868318868218E493A324DB600C24256005123AAA80F0D2
:2039DC00023AC2D2D5E493A3C083C082B4731486F0188683188682181249F66054A3123A89
:2039FC00AA80F5B4630818E618123AAA8043B46417E630E74618E6F42401F608E6F4340009
:203A1C00F6742D123AAA8033B4782D868318868218E4123A9BE583123A9AE583123A9BE563
:203A3C0082123A9AE582123A9B30D5057430123AAAD082D0830239CCB475F6E6FA18E6F96E
:203A5C00187C107D27123A85FF7CE87D03123A85C4F5837C647D00123A854283E975F00AF6
:203A7C0084C445F0F582EF80A97B000BC3E99CF9EA9DFA50F61BE92CF9EA3DFAEB22C45421
:203A9C000F700320D51FC2D52490D43440D4C083C082C0F0F582E8C0E0122E0CD0E0F8D015
:093ABC00F0D082D08322D029222F
:203AC500AA83AB828BF0901B5AE0A4F8A9F08AF0E0A429F98BF0A3E0A429F5838882222241
:203AE500901B5C7401F07400A3F0904A12E493FE740193FF1EBEFF011FEE2401FEEF3400B7
:203B0500FF900001EEF0EFA3F0901B5CE0FEA3E0FF8E828F83A3A3E4F0A3F022AF83E582BF
:203B2500901B5EF0EFA3F0901B5CE0F5F0A3E045F07003123AE5901B5EE0FEA3E0FF4E60C6
:203B45000E74022EFCE43FFDC3EC9EED9F500490000022901B5E74022EF0E43FA3F0901BB5
:203B65005EE0FEA3E0FFC3EE9404EF94005009901B5E7404F0E4A3F0901B5CE0FEA3E0FF0E
:203B8500901B60EEF0EFA3F0901B62745CF0741BA3F0901B60E0FEA3E0FF4E7003023C86D6
:203BA5008E828F83E0FCA3E0FD8C028D038E008F01EAC398FAEB99FB8A008B01901B5EE089
:203BC500F527A3E0F528C3E89527E995285003023C6374042527F8E43528F9C3EA98EB9964
:203BE500404C8E028F03E5272AFAE5283BFB8A828B83ECF0EDA3F074022AFCE43BFD8E8261
:203C05008F83A3A3E0F8A3E0F98C828D83E8F0E9A3F0901B62E0FCA3E0FD8C828D83EAF020
:203C2500EBA3F08E828F83EAF0EBA3F0801C901B62E0FCA3E0FD8E828F83A3A3E0FAA3E0BD
:203C4500FB8C828D83EAF0EBA3F0901B60E0FCA3E0FD74022CFCE43DFD8C828D8322740215
:203C65002EFEE43FFF901B62EEF0EFA3F08E828F83E0FEA3E0FF901B60EEF0EFA3F0023B5A
:053C85009790000022F1
:203C8A00AF83E582901B66F0EFA3F0901B66E0FEA3E0FF30E709C3E49EFCE49FFD80048E9A
:203CAA00048F05901B64E0FEA3E0FF30E709C3E49EFAE49FFB80048E028F03901B68EAF083
:203CCA00EBA3F08C828D83123CF2AE82AF83901B66E0A3E030E70CC3E49EFCE49FFD8C8236
:083CEA008D83228E828F83225C
:203CF200AF83E582901B6AF0EFA3F0901B6CE4F0901B6AE0FEA3E0FF7D00901B68E0FBA324
:203D1200E0FC235401FA7036EB2BFBEC33FC901B68EBF0ECA3F0901B68E0FBA3E0FCC3EEE6
:203D32009BEF9C5011ECC313CB13CBFC901B68EBF0ECA3F080080D901B6CEDF080BC901BA6
:203D52006CE0FF901B6AE0FDA3E0FE901B68E0FBA3E0FCC3ED9BEE9C400B901B6AEDC39BA6
:203D7200F0EE9CA3F0901B68E0FDA3E0C313CD13CDFE901B68EDF0EEA3F08F061FEE70C3EA
:0C3D9200901B6AE0FEA3E08E82F5832205
:203D9E00AFF0AE83E582901B72F0EEA3F0EFA3F0901B72E0FDA3E0FEA3E0FF901B75EDF0C4
:203DBE00EEA3F0EFA3F08D828E838FF01249F6FCA3AD82AE83901B72EDF0EEA3F0EFA3F0F6
:203DDE00EC70E31DBDFF011E901B72EDF0EEA3F0EFA3F0901B6DE0FDA3E0FEA3E0FF901BEE
:203DFE0072E0FAA3E0FBA3E0FC901B70E0F534A3E0F535A834A935153474FFB534021535E0
:203E1E00E849603E8D828E838FF01249F6F9A3AD82AE838A828B838CF0E91239A1A3AA828F
:203E3E00AB83901B72EAF0EBA3F0ECA3F0E970C3901B75E0FDA3E0FEA3E0FF8D828E838F77
:203E5E00F022901B72E0FDA3E0FEA3E0FF8D828E838FF0E41239A1901B75E0FDA3E0FEA3A5
:093E7E00E0FF8D828E838FF0229B
:203E8700AF83E582901B7AF0EFA3F0901B7AE0FEA3E0FF30E709C3E49EFCE49FFD80048E73
:203EA700048F05901B78E0FEA3E0FF33E433FB6009C3E49EF9E49FFA80048E018F02901B28
:203EC7007CE9F0EAA3F08C828D83C003123EF9AE82AF83D003901B7AE0A3E033E4336B600D
:123EE7000CC3E49EFCE49FFD8C828D83228E828F832278
:20203B007800E84400600A790175A000E4F309D8FC78B9E8441B600C791C900001E4F0A3B3
:04205B00D8FCD9FADA
:203EF900AF83E582901B7EF0EFA3F0901B80E4F0A3F0901B7CE0FEA3E0FF7D10901B7EE0C6
:203F1900FBA3E0FC901B82235401F0EB2BFBEC33FC901B7EEBF0ECA3F0901B80E0FBA3E041
:203F3900FCEB2BFBEC33FC901B80EBF0ECA3F0901B82E06008901B80E043E001F0901B80FC
:203F5900E0FBA3E0FCC3EB9EEC9F4013901B80EBC39EF0EC9FA3F0901B7EE043E001F0DD45
:0D3F79009B901B7EE0FEA3E08E82F583226C
:203F8600C0298581297E008E83122E0CD02922AFF0AE83E582901B84F0EEA3F0EFA3F09024
:203FA6001B84E0FDA3E0FEA3E0FF901B83E0FC901B98E4F0A3F0A3F0901B9BEDF0EEA3F091
:203FC600EFA3F0901B9EECF0903F860240DDC029E581F52924FBFF901B98E4F0A3F0A3F0F8
:203FE600E52924FBF8901B9BE6F008E6A3F008E6A3F0901B9EEFF0903F861240DDD02922B1
:20400600E582901B94F0E0FF901B8AE0C0E0A3E0C0E0A3E0C0E0124021800D901B88E0C057
:20402600E0A3E0C0E08F8222158115811581901B92E02401F0A3E03400F022E582901B95E0
:20404600F0E02430FF24C6500D74072FFF901B87E060034307208F82024006E582901B9667
:20406600F0E0FFC4540FF582C007124041D00753070F8F82024041E582901B97F0901B8DCE
:20408600E0FCA3E0FDA3E0FEA3E0FF901B91E0FB753420901B97E0F98B00E828F8EF2354C7
:2040A6000148FBEC2CFCED33FDEE33FEEF33FFC3EB994007EBC399FB430401E53414FA8A7C
:2040C6003470D5901B8DECF0EDA3F0EEA3F0EFA3F0901B91EBF022AF83E582901B9FF0EFCF
:2040E600A3F0901B9FE0FEA3E0FF901B88EEF0EFA3F0901B98E0FDA3E0FEA3E0FF901B8A92
:20410600EDF0EEA3F0EFA3F0901B92E4F0A3F0901B9BE0FDA3E0FEA3E0FF8D828E838FF050
:204126001249F6FC901B9B74012DF0E43EA3F0EFA3F0EC70030249D2BC250280030249CA26
:20414600901BA1E4F0901BA2F0901BA3F0901BA4F0901BA5F0901BA6F0901BA7F0901BA869
:20416600F0901BAAF0901BABF0A3F0901BAD14F0A3F0901B9BE0FDA3E0FEA3E0FF8D828E79
:20418600838FF01249F6FBA3AD82AE83901B9BEDF0EEA3F0EFA3F0901BB1EBF0BB25088BF8
:2041A60082124006024115BB30005003024276EB24C65003024276901BADE0F52AA3E0F51E
:2041C6002B74FFB52A63B52B60C005C006C007901BABE0FAA3E0FF901B5AEAF0EFA3F090C4
:2041E600000AC005C003123AC5AE82AF83D003D0058B027D00EA2EFEED3FFFEE24D0FEEFF2
:2042060034FFFF901BABEEF0EFA3F0D007D006D005901BABE0F5F0A3E045F0600302418332
:20422600901BA27401F0024183C005C006C007901B5AE52AF0E52BA3F090000AC006C005E2
:20424600C003123AC5AA82AF83D003D005D0067E00EB2AFAEE3FFFEA24D0FAEF34FFFF9066
:204266001BADEAF0EFA3F0D007D006D005024183901BB1E0FBBB2E2FC005C006C007901B80
:20428600ADE0FAA3E0FFBAFF05BFFF028009D007D006D005024183D007D006D005901BADE6
:2042A600E4F0A3F0024183BB61004014EB2485400F901BB174DF5BF0901B877401F0800562
:2042C600901B87E4F0901BB1E0FBBB20028075BB2B028067BB2D028059BB4202806FBB434B
:2042E60002807CBB440302456DBB4603024593BB4803024183BB490302456DBB4A03024154
:2043060083BB4C028050BB4F0302457BBB50030244DBBB53028077BB5403024183BB55034B
:20432600024583BB580302458BBB5A0302418302459B901BA17401F0024183901BA37401CB
:20434600F0024183901BA47401F0024183901BA67401F0024183901BA77401F0024183909E
:204366001BA6E0600E901B9EE014F9F0901BB1E7F0800F901B9EE024FEFFF08F01901BB11A
:20438600E7F0901BB1E0F5821240060245AA901B9EE024FDFFF08F018705098706098707C2
:2043A6001919901B8DEDF0EEA3F0EFA3F08D828E838FF01249DE85822A85832B901BADE039
:2043C600FAA3E0FDBAFF0DBDFF0A901BADE52AF0E52BA3F0901BA1E0704B901BABE0FAA31D
:2043E600E0FDC3E52A9AE52B9D503A901BABEAC3952AF0ED952BA3F0901BABE0FAA3E0FD95
:204406008A068D071ABAFF011DEE4F6010758220C005C002124006D002D00580E3901BAB7E
:20442600EAF0EDA3F0901BADE0F52DA3E0F52E901B8DE0FAA3E0FDA3E0FF8A828D838FF06D
:204446001249F6F52C603CC3E4952D7480852EF063F08095F0502C152D74FFB52D02152E98
:20446600852C82124006901B8DE0FAA3E0FDA3E0FF0ABA00010D901B8DEAF0EDA3F0EFA3A1
:20448600F080AC901BA1E070030245AA901BABE0FEA3E0FFC3E52A9EE52B9F40030245AA61
:2044A600901BABEEC3952AF0EF952BA3F0901BABE0FEA3E0FF8E028F051EBEFF011FEA4DF2
:2044C60070030245A2758220C007C006124006D006D00780E0901B9EE024FDFDF08D018725
:2044E6002F0987300987311919901B8DE52FF0E530A3F0E531A3F0901B8FE0FDBD800040B3
:2045060008901BB17443F08020BD60004008901BB17450F08013BD40004008901BB1744984
:20452600F08006901BB17458F0901BB1E0FDF582C00512400675823A124006758230124018
:2045460006758278124006D005BD4902800EBD50028009901B8EE0F582124061901B8DE02A
:20456600F582124061803D901BA57401F0901BAA740AF0802F901BAA7408F08027901BAA6A
:20458600740AF0801F901BAA7410F08017901BA87401F0800F8B821240068008901BABEE30
:2045A600F0EFA3F0901BA8E06071901B9EE024FCFFF08F0187030987050987060987071952
:2045C6001919901B8DEBF0EDA3F0EEA3F0EFA3F0901B8D7482F07452A3F07480A3F0901B64
:2045E6008DE0F52FA3E0F530A3E0F5317401252FFAE43530FBAF31901B8DEAF0EBA3F0EF6D
:20460600A3F0852F828530838531F01249F6FF70030241158F8212400680C3901BAAE07081
:2046260003024115901BA6E06047901B9EE014F9F087077E007D007B00901B8DEFF0EEA36F
:20464600F0EDA3F0EBA3F0901BA5E060030246ED901B8DE0FBA3E0A3E0A3E07D007E007F88
:2046660000901B8DEBF0EDA3F0EEA3F0EFA3F08076901BA7E06028901B9EE024FCFFF08F27
:20468600018703098705098706098707191919901B8DEBF0EDA3F0EEA3F0EFA3F08048908E
:2046A6001B9EE024FEFFF08F01870609870719EF3395E0FDFB901B8DEEF0EFA3F0EDA3F0D6
:2046C600EBA3F0901BA5E0701E901B8DE0FBA3E0FDA3E0A3E07E007F00901B8DEBF0EDA35F
:2046E600F0EEA3F0EFA3F0901BA5E06041901B8DE0FBA3E0FDA3E0FEA3E0FF30E72B901B6D
:204706008DE0FBA3E0FDA3E0FEA3E0FFC3E49BFBE49DFDE49EFEE49FFF901B8DEBF0EDA348
:20472600F0EEA3F0EFA3F08005901BA5E4F0901BA97401F0901BAAE0F52D7532B775331BA6
:20474600E4F52AF52B901B91E4F0852D8212407D901BA9E07026901B91E0C4F52F85328216
:20476600853383E0FFE52F4207853282853383EFF0153274FFB532021533800C901B91E0D6
:20478600FF853282853383F0052AE4B52A02052B901BA9E0B40100E433F0901B8DE0FAA3E7
:2047A600E0FBA3E0FEA3E0FFEA4B4E4F7097901BB8E532F0E533A3F0901BAFE52AF0E52BBE
:2047C600A3F0901BABE0F5F0A3E045F07009901BAB7401F0E4A3F0901BA2E0FFE07047906F
:2047E6001BA1E07041852A32852B33901BABE0FAA3E0FBC007AF320F8F067F00C3EE9AEFEF
:204806009BD0075019758220C007C003C002124006D002D003D0071ABAFF011B80D5901B91
:20482600ABEAF0EBA3F0901BA5E0602075822DC007124006D007901BABE024FFFDA3E03498
:20484600FFFE901BABEDF0EEA3F08056901BAFE0F5F0A3E045F0604A901BA3E060207582A5
:204866002BC007124006D007901BABE024FFFDA3E034FFFE901BABEDF0EEA3F08024901B04
:20488600A4E0601E758220C007124006D007901BABE024FFFDA3E034FFFE901BABEDF0EED8
:2048A600A3F0901BA1E07048901BAFE0F532A3E0F533901BABE0FAA3E0FBC0078A068B07D8
:2048C6001ABAFF011BC3E5329EE5339FD0075053EF60067D307E0080047D207E008D82C04C
:2048E60007C003C002124006D002D003D00780CA901BABE0FEA3E0FF901BAFE0F532A3E06E
:20490600F533C3E5329EE5339F500F901BABEEC39532F0EF9533A3F08011901BABE4F0A375
:20492600F08008901BABEAF0EBA3F0901BB8E0FEA3E0FF901BAFE0F532A3E0F533AA32ADF3
:2049460033153274FFB532021533EA4D6045901BA9E0B40100E433F0901BA9E070140EBEE3
:2049660000010F8E828F83E0C4540FFD901B91F0800E8E828F83E0FD53050F901B91EDF0C2
:20498600901B91E0F582C007C006124041D006D00780AA901BA1E07003024115901BABE05A
:2049A600FEA3E0FF8E038F051EBEFF011FEB4D7003024115758220C007C006124006D0067C
:1849C600D00780E08C82124006024115901B92E0FEA3E08E82F583229C
:0B5282003C4E4F20464C4F41543E0074
:1849DE00AA82AB831249F66003A380F8C3E5829AF582E5839BF58322C0
:0D2006007581361220A8E5826003022003D8
:1C49F60020F71430F6148883A88220F507E6A88375830022E280F7E49322E022D0
:00000001FF
